{
  "contractName": "Aadhaar",
  "abi": [
    {
      "anonymous": false,
      "inputs": [
        {
          "indexed": false,
          "internalType": "string",
          "name": "field",
          "type": "string"
        },
        {
          "indexed": false,
          "internalType": "address",
          "name": "company",
          "type": "address"
        },
        {
          "indexed": true,
          "internalType": "address",
          "name": "user",
          "type": "address"
        },
        {
          "indexed": false,
          "internalType": "string",
          "name": "name",
          "type": "string"
        }
      ],
      "name": "userNotification",
      "type": "event"
    },
    {
      "inputs": [
        {
          "internalType": "address",
          "name": "",
          "type": "address"
        }
      ],
      "name": "aadhaarMapping",
      "outputs": [
        {
          "internalType": "string",
          "name": "name",
          "type": "string"
        },
        {
          "internalType": "string",
          "name": "DOB",
          "type": "string"
        },
        {
          "internalType": "string",
          "name": "HomeAddress",
          "type": "string"
        },
        {
          "internalType": "string",
          "name": "gender",
          "type": "string"
        }
      ],
      "stateMutability": "view",
      "type": "function",
      "constant": true
    },
    {
      "inputs": [
        {
          "internalType": "address",
          "name": "",
          "type": "address"
        },
        {
          "internalType": "uint256",
          "name": "",
          "type": "uint256"
        }
      ],
      "name": "accessMappingDOB",
      "outputs": [
        {
          "internalType": "address",
          "name": "",
          "type": "address"
        }
      ],
      "stateMutability": "view",
      "type": "function",
      "constant": true
    },
    {
      "inputs": [
        {
          "internalType": "address",
          "name": "",
          "type": "address"
        },
        {
          "internalType": "uint256",
          "name": "",
          "type": "uint256"
        }
      ],
      "name": "accessMappingGender",
      "outputs": [
        {
          "internalType": "address",
          "name": "",
          "type": "address"
        }
      ],
      "stateMutability": "view",
      "type": "function",
      "constant": true
    },
    {
      "inputs": [
        {
          "internalType": "address",
          "name": "",
          "type": "address"
        },
        {
          "internalType": "uint256",
          "name": "",
          "type": "uint256"
        }
      ],
      "name": "accessMappingHomeAddress",
      "outputs": [
        {
          "internalType": "address",
          "name": "",
          "type": "address"
        }
      ],
      "stateMutability": "view",
      "type": "function",
      "constant": true
    },
    {
      "inputs": [
        {
          "internalType": "address",
          "name": "",
          "type": "address"
        },
        {
          "internalType": "uint256",
          "name": "",
          "type": "uint256"
        }
      ],
      "name": "accessMappingName",
      "outputs": [
        {
          "internalType": "address",
          "name": "",
          "type": "address"
        }
      ],
      "stateMutability": "view",
      "type": "function",
      "constant": true
    },
    {
      "inputs": [
        {
          "internalType": "address",
          "name": "",
          "type": "address"
        },
        {
          "internalType": "uint256",
          "name": "",
          "type": "uint256"
        }
      ],
      "name": "eventsMapping",
      "outputs": [
        {
          "internalType": "string",
          "name": "companyName",
          "type": "string"
        },
        {
          "internalType": "address",
          "name": "companyAdress",
          "type": "address"
        },
        {
          "internalType": "string",
          "name": "field",
          "type": "string"
        },
        {
          "internalType": "string",
          "name": "status",
          "type": "string"
        }
      ],
      "stateMutability": "view",
      "type": "function",
      "constant": true
    },
    {
      "inputs": [
        {
          "internalType": "address",
          "name": "userAddress",
          "type": "address"
        },
        {
          "internalType": "string",
          "name": "name",
          "type": "string"
        }
      ],
      "name": "requestAccessName",
      "outputs": [],
      "stateMutability": "nonpayable",
      "type": "function"
    },
    {
      "inputs": [
        {
          "internalType": "address",
          "name": "userAddress",
          "type": "address"
        }
      ],
      "name": "grantAccessName",
      "outputs": [],
      "stateMutability": "nonpayable",
      "type": "function"
    },
    {
      "inputs": [],
      "name": "getAllEvents",
      "outputs": [
        {
          "components": [
            {
              "internalType": "string",
              "name": "companyName",
              "type": "string"
            },
            {
              "internalType": "address",
              "name": "companyAdress",
              "type": "address"
            },
            {
              "internalType": "string",
              "name": "field",
              "type": "string"
            },
            {
              "internalType": "string",
              "name": "status",
              "type": "string"
            }
          ],
          "internalType": "struct Aadhaar.events[]",
          "name": "",
          "type": "tuple[]"
        }
      ],
      "stateMutability": "view",
      "type": "function",
      "constant": true
    },
    {
      "inputs": [
        {
          "internalType": "address",
          "name": "userAddress",
          "type": "address"
        },
        {
          "internalType": "string",
          "name": "name",
          "type": "string"
        }
      ],
      "name": "requestAccessDOB",
      "outputs": [],
      "stateMutability": "nonpayable",
      "type": "function"
    },
    {
      "inputs": [
        {
          "internalType": "address",
          "name": "userAddress",
          "type": "address"
        }
      ],
      "name": "grantAccessDOB",
      "outputs": [],
      "stateMutability": "nonpayable",
      "type": "function"
    },
    {
      "inputs": [
        {
          "internalType": "address",
          "name": "userAddress",
          "type": "address"
        },
        {
          "internalType": "string",
          "name": "name",
          "type": "string"
        }
      ],
      "name": "requestAccessHomeAddress",
      "outputs": [],
      "stateMutability": "nonpayable",
      "type": "function"
    },
    {
      "inputs": [
        {
          "internalType": "address",
          "name": "userAddress",
          "type": "address"
        }
      ],
      "name": "grantAccessHomeAddress",
      "outputs": [],
      "stateMutability": "nonpayable",
      "type": "function"
    },
    {
      "inputs": [
        {
          "internalType": "address",
          "name": "userAddress",
          "type": "address"
        },
        {
          "internalType": "string",
          "name": "name",
          "type": "string"
        }
      ],
      "name": "requestAccessGender",
      "outputs": [],
      "stateMutability": "nonpayable",
      "type": "function"
    },
    {
      "inputs": [
        {
          "internalType": "address",
          "name": "userAddress",
          "type": "address"
        }
      ],
      "name": "grantAccessGender",
      "outputs": [],
      "stateMutability": "nonpayable",
      "type": "function"
    },
    {
      "inputs": [
        {
          "internalType": "address",
          "name": "userAddress",
          "type": "address"
        }
      ],
      "name": "getAllAccess",
      "outputs": [
        {
          "components": [
            {
              "internalType": "string",
              "name": "name",
              "type": "string"
            },
            {
              "internalType": "string",
              "name": "DOB",
              "type": "string"
            },
            {
              "internalType": "string",
              "name": "HomeAddress",
              "type": "string"
            },
            {
              "internalType": "string",
              "name": "gender",
              "type": "string"
            }
          ],
          "internalType": "struct Aadhaar.User_Aadhaar",
          "name": "",
          "type": "tuple"
        }
      ],
      "stateMutability": "view",
      "type": "function",
      "constant": true
    },
    {
      "inputs": [
        {
          "internalType": "string",
          "name": "name",
          "type": "string"
        },
        {
          "internalType": "string",
          "name": "DOB",
          "type": "string"
        },
        {
          "internalType": "string",
          "name": "home_address",
          "type": "string"
        },
        {
          "internalType": "string",
          "name": "gender",
          "type": "string"
        }
      ],
      "name": "createUserDocuments",
      "outputs": [],
      "stateMutability": "nonpayable",
      "type": "function"
    },
    {
      "inputs": [],
      "name": "isNull",
      "outputs": [
        {
          "internalType": "string",
          "name": "",
          "type": "string"
        }
      ],
      "stateMutability": "pure",
      "type": "function",
      "constant": true
    },
    {
      "inputs": [
        {
          "internalType": "address",
          "name": "userAddress",
          "type": "address"
        }
      ],
      "name": "retrieveName",
      "outputs": [
        {
          "internalType": "string",
          "name": "name",
          "type": "string"
        }
      ],
      "stateMutability": "view",
      "type": "function",
      "constant": true
    },
    {
      "inputs": [
        {
          "internalType": "address",
          "name": "userAddress",
          "type": "address"
        }
      ],
      "name": "retrieveDOB",
      "outputs": [
        {
          "internalType": "string",
          "name": "DOB",
          "type": "string"
        }
      ],
      "stateMutability": "view",
      "type": "function",
      "constant": true
    },
    {
      "inputs": [
        {
          "internalType": "address",
          "name": "userAddress",
          "type": "address"
        }
      ],
      "name": "retrieveHomeAddress",
      "outputs": [
        {
          "internalType": "string",
          "name": "HomeAddress",
          "type": "string"
        }
      ],
      "stateMutability": "view",
      "type": "function",
      "constant": true
    },
    {
      "inputs": [
        {
          "internalType": "address",
          "name": "userAddress",
          "type": "address"
        }
      ],
      "name": "retrieveGender",
      "outputs": [
        {
          "internalType": "string",
          "name": "gender",
          "type": "string"
        }
      ],
      "stateMutability": "view",
      "type": "function",
      "constant": true
    },
    {
      "inputs": [
        {
          "internalType": "address",
          "name": "userAddress",
          "type": "address"
        }
      ],
      "name": "checkAllAccess",
      "outputs": [
        {
          "components": [
            {
              "internalType": "string",
              "name": "name",
              "type": "string"
            },
            {
              "internalType": "string",
              "name": "DOB",
              "type": "string"
            },
            {
              "internalType": "string",
              "name": "HomeAddress",
              "type": "string"
            },
            {
              "internalType": "string",
              "name": "gender",
              "type": "string"
            }
          ],
          "internalType": "struct Aadhaar.User_Aadhaar",
          "name": "",
          "type": "tuple"
        }
      ],
      "stateMutability": "view",
      "type": "function",
      "constant": true
    }
  ],
  "bytecode": "0x608060405234801561001057600080fd5b50614095806100206000396000f3fe608060405234801561001057600080fd5b506004361061014d5760003560e01c80639e93f62f116100c3578063c27a500d1161007c578063c27a500d146103e7578063c5247f2214610405578063d4ff371314610435578063dd37b29414610451578063f42ae4da14610484578063fb729e8f146104a05761014d565b80639e93f62f14610301578063a6cce62b14610331578063aa1298d51461034d578063acafa7a51461037d578063b538907e14610399578063b5da0114146103c95761014d565b80634af4e89d116101155780634af4e89d14610245578063686b1a70146102615780636e2cfd4a1461027d578063779d176e1461029957806386a751f8146102b55780639dd9fd63146102e55761014d565b8063026b599b1461015257806309722e591461018257806315c97d07146101b257806332c733b2146101e257806339f449fd14610215575b600080fd5b61016c60048036038101906101679190613111565b6104d0565b60405161017991906131ce565b60405180910390f35b61019c60048036038101906101979190613111565b610764565b6040516101a991906131ce565b60405180910390f35b6101cc60048036038101906101c79190613111565b6109f8565b6040516101d991906132b2565b60405180910390f35b6101fc60048036038101906101f79190613111565b610a4e565b60405161020c94939291906132d4565b60405180910390f35b61022f600480360381019061022a919061336b565b610c9e565b60405161023c91906133ba565b60405180910390f35b61025f600480360381019061025a919061350a565b610cec565b005b61027b60048036038101906102769190613111565b610ed9565b005b6102976004803603810190610292919061350a565b6112a4565b005b6102b360048036038101906102ae919061350a565b611491565b005b6102cf60048036038101906102ca9190613111565b61167e565b6040516102dc91906132b2565b60405180910390f35b6102ff60048036038101906102fa9190613566565b611767565b005b61031b6004803603810190610316919061336b565b61182e565b60405161032891906133ba565b60405180910390f35b61034b60048036038101906103469190613111565b61187c565b005b6103676004803603810190610362919061336b565b611c47565b60405161037491906133ba565b60405180910390f35b61039760048036038101906103929190613111565b611c95565b005b6103b360048036038101906103ae9190613111565b612060565b6040516103c091906131ce565b60405180910390f35b6103d16122f4565b6040516103de91906131ce565b60405180910390f35b6103ef612331565b6040516103fc919061377f565b60405180910390f35b61041f600480360381019061041a919061336b565b6125d8565b60405161042c91906133ba565b60405180910390f35b61044f600480360381019061044a9190613111565b612626565b005b61046b6004803603810190610466919061336b565b6129f1565b60405161047b94939291906137a1565b60405180910390f35b61049e6004803603810190610499919061350a565b612bf6565b005b6104ba60048036038101906104b59190613111565b612de3565b6040516104c791906131ce565b60405180910390f35b6060816000805b600260008473ffffffffffffffffffffffffffffffffffffffff1673ffffffffffffffffffffffffffffffffffffffff168152602001908152602001600020805490508110156105e7573373ffffffffffffffffffffffffffffffffffffffff16600260008573ffffffffffffffffffffffffffffffffffffffff1673ffffffffffffffffffffffffffffffffffffffff1681526020019081526020016000208281548110610589576105886137fb565b5b9060005260206000200160009054906101000a900473ffffffffffffffffffffffffffffffffffffffff1673ffffffffffffffffffffffffffffffffffffffff16036105d457600191505b80806105df90613859565b9150506104d7565b50801561075357836000600160008373ffffffffffffffffffffffffffffffffffffffff1673ffffffffffffffffffffffffffffffffffffffff168152602001908152602001600020600001805461063e906138d0565b905011610680576040517f08c379a00000000000000000000000000000000000000000000000000000000081526004016106779061394d565b60405180910390fd5b600160008673ffffffffffffffffffffffffffffffffffffffff1673ffffffffffffffffffffffffffffffffffffffff16815260200190815260200160002060000180546106cd906138d0565b80601f01602080910402602001604051908101604052809291908181526020018280546106f9906138d0565b80156107465780601f1061071b57610100808354040283529160200191610746565b820191906000526020600020905b81548152906001019060200180831161072957829003601f168201915b505050505093505061075d565b61075b6122f4565b505b5050919050565b6060816000805b600560008473ffffffffffffffffffffffffffffffffffffffff1673ffffffffffffffffffffffffffffffffffffffff1681526020019081526020016000208054905081101561087b573373ffffffffffffffffffffffffffffffffffffffff16600560008573ffffffffffffffffffffffffffffffffffffffff1673ffffffffffffffffffffffffffffffffffffffff168152602001908152602001600020828154811061081d5761081c6137fb565b5b9060005260206000200160009054906101000a900473ffffffffffffffffffffffffffffffffffffffff1673ffffffffffffffffffffffffffffffffffffffff160361086857600191505b808061087390613859565b91505061076b565b5080156109e757836000600160008373ffffffffffffffffffffffffffffffffffffffff1673ffffffffffffffffffffffffffffffffffffffff16815260200190815260200160002060000180546108d2906138d0565b905011610914576040517f08c379a000000000000000000000000000000000000000000000000000000000815260040161090b9061394d565b60405180910390fd5b600160008673ffffffffffffffffffffffffffffffffffffffff1673ffffffffffffffffffffffffffffffffffffffff1681526020019081526020016000206003018054610961906138d0565b80601f016020809104026020016040519081016040528092919081815260200182805461098d906138d0565b80156109da5780601f106109af576101008083540402835291602001916109da565b820191906000526020600020905b8154815290600101906020018083116109bd57829003601f168201915b50505050509350506109f1565b6109ef6122f4565b505b5050919050565b610a00613077565b60006040518060800160405280610a16856104d0565b8152602001610a2485612de3565b8152602001610a3285612060565b8152602001610a4085610764565b815250905080915050919050565b6001602052806000526040600020600091509050806000018054610a71906138d0565b80601f0160208091040260200160405190810160405280929190818152602001828054610a9d906138d0565b8015610aea5780601f10610abf57610100808354040283529160200191610aea565b820191906000526020600020905b815481529060010190602001808311610acd57829003601f168201915b505050505090806001018054610aff906138d0565b80601f0160208091040260200160405190810160405280929190818152602001828054610b2b906138d0565b8015610b785780601f10610b4d57610100808354040283529160200191610b78565b820191906000526020600020905b815481529060010190602001808311610b5b57829003601f168201915b505050505090806002018054610b8d906138d0565b80601f0160208091040260200160405190810160405280929190818152602001828054610bb9906138d0565b8015610c065780601f10610bdb57610100808354040283529160200191610c06565b820191906000526020600020905b815481529060010190602001808311610be957829003601f168201915b505050505090806003018054610c1b906138d0565b80601f0160208091040260200160405190810160405280929190818152602001828054610c47906138d0565b8015610c945780601f10610c6957610100808354040283529160200191610c94565b820191906000526020600020905b815481529060010190602001808311610c7757829003601f168201915b5050505050905084565b60046020528160005260406000208181548110610cba57600080fd5b906000526020600020016000915091509054906101000a900473ffffffffffffffffffffffffffffffffffffffff1681565b600060405180608001604052808381526020013373ffffffffffffffffffffffffffffffffffffffff1681526020016040518060400160405280600481526020017f6e616d650000000000000000000000000000000000000000000000000000000081525081526020016040518060400160405280600781526020017f70656e64696e670000000000000000000000000000000000000000000000000081525081525090506000808473ffffffffffffffffffffffffffffffffffffffff1673ffffffffffffffffffffffffffffffffffffffff1681526020019081526020016000208190806001815401808255809150506001900390600052602060002090600402016000909190919091506000820151816000019081610e0e9190613b19565b5060208201518160010160006101000a81548173ffffffffffffffffffffffffffffffffffffffff021916908373ffffffffffffffffffffffffffffffffffffffff1602179055506040820151816002019081610e6b9190613b19565b506060820151816003019081610e819190613b19565b5050508273ffffffffffffffffffffffffffffffffffffffff167f2b7d0639ee74977a8480bc14e3fd576ff2fd75521087934b00d123e744022d4c3384604051610ecc929190613c37565b60405180910390a2505050565b60005b6000803373ffffffffffffffffffffffffffffffffffffffff1673ffffffffffffffffffffffffffffffffffffffff16815260200190815260200160002080549050811015611200578173ffffffffffffffffffffffffffffffffffffffff166000803373ffffffffffffffffffffffffffffffffffffffff1673ffffffffffffffffffffffffffffffffffffffff1681526020019081526020016000208281548110610f8c57610f8b6137fb565b5b906000526020600020906004020160010160009054906101000a900473ffffffffffffffffffffffffffffffffffffffff1673ffffffffffffffffffffffffffffffffffffffff1614801561108a5750604051602001610feb90613cd1565b604051602081830303815290604052805190602001206000803373ffffffffffffffffffffffffffffffffffffffff1673ffffffffffffffffffffffffffffffffffffffff1681526020019081526020016000208281548110611051576110506137fb565b5b90600052602060002090600402016002016040516020016110729190613d69565b60405160208183030381529060405280519060200120145b801561113f57506040516020016110a090613dcc565b604051602081830303815290604052805190602001206000803373ffffffffffffffffffffffffffffffffffffffff1673ffffffffffffffffffffffffffffffffffffffff1681526020019081526020016000208281548110611106576111056137fb565b5b90600052602060002090600402016003016040516020016111279190613d69565b60405160208183030381529060405280519060200120145b156111ed576040518060400160405280600781526020017f6772616e746564000000000000000000000000000000000000000000000000008152506000803373ffffffffffffffffffffffffffffffffffffffff1673ffffffffffffffffffffffffffffffffffffffff16815260200190815260200160002082815481106111ca576111c96137fb565b5b906000526020600020906004020160030190816111e79190613b19565b50611200565b80806111f890613859565b915050610edc565b50600460003373ffffffffffffffffffffffffffffffffffffffff1673ffffffffffffffffffffffffffffffffffffffff168152602001908152602001600020819080600181540180825580915050600190039060005260206000200160009091909190916101000a81548173ffffffffffffffffffffffffffffffffffffffff021916908373ffffffffffffffffffffffffffffffffffffffff16021790555050565b600060405180608001604052808381526020013373ffffffffffffffffffffffffffffffffffffffff1681526020016040518060400160405280600681526020017f47656e646572000000000000000000000000000000000000000000000000000081525081526020016040518060400160405280600781526020017f70656e64696e670000000000000000000000000000000000000000000000000081525081525090506000808473ffffffffffffffffffffffffffffffffffffffff1673ffffffffffffffffffffffffffffffffffffffff16815260200190815260200160002081908060018154018082558091505060019003906000526020600020906004020160009091909190915060008201518160000190816113c69190613b19565b5060208201518160010160006101000a81548173ffffffffffffffffffffffffffffffffffffffff021916908373ffffffffffffffffffffffffffffffffffffffff16021790555060408201518160020190816114239190613b19565b5060608201518160030190816114399190613b19565b5050508273ffffffffffffffffffffffffffffffffffffffff167f2b7d0639ee74977a8480bc14e3fd576ff2fd75521087934b00d123e744022d4c3384604051611484929190613e2d565b60405180910390a2505050565b600060405180608001604052808381526020013373ffffffffffffffffffffffffffffffffffffffff1681526020016040518060400160405280600381526020017f444f42000000000000000000000000000000000000000000000000000000000081525081526020016040518060400160405280600781526020017f70656e64696e670000000000000000000000000000000000000000000000000081525081525090506000808473ffffffffffffffffffffffffffffffffffffffff1673ffffffffffffffffffffffffffffffffffffffff16815260200190815260200160002081908060018154018082558091505060019003906000526020600020906004020160009091909190915060008201518160000190816115b39190613b19565b5060208201518160010160006101000a81548173ffffffffffffffffffffffffffffffffffffffff021916908373ffffffffffffffffffffffffffffffffffffffff16021790555060408201518160020190816116109190613b19565b5060608201518160030190816116269190613b19565b5050508273ffffffffffffffffffffffffffffffffffffffff167f2b7d0639ee74977a8480bc14e3fd576ff2fd75521087934b00d123e744022d4c3384604051611671929190613ebc565b60405180910390a2505050565b611686613077565b816000600160008373ffffffffffffffffffffffffffffffffffffffff1673ffffffffffffffffffffffffffffffffffffffff16815260200190815260200160002060000180546116d6906138d0565b905011611718576040517f08c379a000000000000000000000000000000000000000000000000000000000815260040161170f9061394d565b60405180910390fd5b6000604051806080016040528061172e866104d0565b815260200161173c86612de3565b815260200161174a86612060565b815260200161175886610764565b81525090508092505050919050565b6000604051806080016040528086815260200185815260200184815260200183815250905080600160003373ffffffffffffffffffffffffffffffffffffffff1673ffffffffffffffffffffffffffffffffffffffff16815260200190815260200160002060008201518160000190816117e19190613b19565b5060208201518160010190816117f79190613b19565b50604082015181600201908161180d9190613b19565b5060608201518160030190816118239190613b19565b509050505050505050565b6005602052816000526040600020818154811061184a57600080fd5b906000526020600020016000915091509054906101000a900473ffffffffffffffffffffffffffffffffffffffff1681565b60005b6000803373ffffffffffffffffffffffffffffffffffffffff1673ffffffffffffffffffffffffffffffffffffffff16815260200190815260200160002080549050811015611ba3578173ffffffffffffffffffffffffffffffffffffffff166000803373ffffffffffffffffffffffffffffffffffffffff1673ffffffffffffffffffffffffffffffffffffffff168152602001908152602001600020828154811061192f5761192e6137fb565b5b906000526020600020906004020160010160009054906101000a900473ffffffffffffffffffffffffffffffffffffffff1673ffffffffffffffffffffffffffffffffffffffff16148015611a2d575060405160200161198e90613f22565b604051602081830303815290604052805190602001206000803373ffffffffffffffffffffffffffffffffffffffff1673ffffffffffffffffffffffffffffffffffffffff16815260200190815260200160002082815481106119f4576119f36137fb565b5b9060005260206000209060040201600201604051602001611a159190613d69565b60405160208183030381529060405280519060200120145b8015611ae25750604051602001611a4390613dcc565b604051602081830303815290604052805190602001206000803373ffffffffffffffffffffffffffffffffffffffff1673ffffffffffffffffffffffffffffffffffffffff1681526020019081526020016000208281548110611aa957611aa86137fb565b5b9060005260206000209060040201600301604051602001611aca9190613d69565b60405160208183030381529060405280519060200120145b15611b90576040518060400160405280600781526020017f6772616e746564000000000000000000000000000000000000000000000000008152506000803373ffffffffffffffffffffffffffffffffffffffff1673ffffffffffffffffffffffffffffffffffffffff1681526020019081526020016000208281548110611b6d57611b6c6137fb565b5b90600052602060002090600402016003019081611b8a9190613b19565b50611ba3565b8080611b9b90613859565b91505061187f565b50600360003373ffffffffffffffffffffffffffffffffffffffff1673ffffffffffffffffffffffffffffffffffffffff168152602001908152602001600020819080600181540180825580915050600190039060005260206000200160009091909190916101000a81548173ffffffffffffffffffffffffffffffffffffffff021916908373ffffffffffffffffffffffffffffffffffffffff16021790555050565b60036020528160005260406000208181548110611c6357600080fd5b906000526020600020016000915091509054906101000a900473ffffffffffffffffffffffffffffffffffffffff1681565b60005b6000803373ffffffffffffffffffffffffffffffffffffffff1673ffffffffffffffffffffffffffffffffffffffff16815260200190815260200160002080549050811015611fbc578173ffffffffffffffffffffffffffffffffffffffff166000803373ffffffffffffffffffffffffffffffffffffffff1673ffffffffffffffffffffffffffffffffffffffff1681526020019081526020016000208281548110611d4857611d476137fb565b5b906000526020600020906004020160010160009054906101000a900473ffffffffffffffffffffffffffffffffffffffff1673ffffffffffffffffffffffffffffffffffffffff16148015611e465750604051602001611da790613f83565b604051602081830303815290604052805190602001206000803373ffffffffffffffffffffffffffffffffffffffff1673ffffffffffffffffffffffffffffffffffffffff1681526020019081526020016000208281548110611e0d57611e0c6137fb565b5b9060005260206000209060040201600201604051602001611e2e9190613d69565b60405160208183030381529060405280519060200120145b8015611efb5750604051602001611e5c90613dcc565b604051602081830303815290604052805190602001206000803373ffffffffffffffffffffffffffffffffffffffff1673ffffffffffffffffffffffffffffffffffffffff1681526020019081526020016000208281548110611ec257611ec16137fb565b5b9060005260206000209060040201600301604051602001611ee39190613d69565b60405160208183030381529060405280519060200120145b15611fa9576040518060400160405280600781526020017f6772616e746564000000000000000000000000000000000000000000000000008152506000803373ffffffffffffffffffffffffffffffffffffffff1673ffffffffffffffffffffffffffffffffffffffff1681526020019081526020016000208281548110611f8657611f856137fb565b5b90600052602060002090600402016003019081611fa39190613b19565b50611fbc565b8080611fb490613859565b915050611c98565b50600260003373ffffffffffffffffffffffffffffffffffffffff1673ffffffffffffffffffffffffffffffffffffffff168152602001908152602001600020819080600181540180825580915050600190039060005260206000200160009091909190916101000a81548173ffffffffffffffffffffffffffffffffffffffff021916908373ffffffffffffffffffffffffffffffffffffffff16021790555050565b6060816000805b600460008473ffffffffffffffffffffffffffffffffffffffff1673ffffffffffffffffffffffffffffffffffffffff16815260200190815260200160002080549050811015612177573373ffffffffffffffffffffffffffffffffffffffff16600460008573ffffffffffffffffffffffffffffffffffffffff1673ffffffffffffffffffffffffffffffffffffffff1681526020019081526020016000208281548110612119576121186137fb565b5b9060005260206000200160009054906101000a900473ffffffffffffffffffffffffffffffffffffffff1673ffffffffffffffffffffffffffffffffffffffff160361216457600191505b808061216f90613859565b915050612067565b5080156122e357836000600160008373ffffffffffffffffffffffffffffffffffffffff1673ffffffffffffffffffffffffffffffffffffffff16815260200190815260200160002060000180546121ce906138d0565b905011612210576040517f08c379a00000000000000000000000000000000000000000000000000000000081526004016122079061394d565b60405180910390fd5b600160008673ffffffffffffffffffffffffffffffffffffffff1673ffffffffffffffffffffffffffffffffffffffff168152602001908152602001600020600201805461225d906138d0565b80601f0160208091040260200160405190810160405280929190818152602001828054612289906138d0565b80156122d65780601f106122ab576101008083540402835291602001916122d6565b820191906000526020600020905b8154815290600101906020018083116122b957829003601f168201915b50505050509350506122ed565b6122eb6122f4565b505b5050919050565b60606040518060400160405280600b81526020017f4e6f7420416c6c6f776564000000000000000000000000000000000000000000815250905090565b60606000803373ffffffffffffffffffffffffffffffffffffffff1673ffffffffffffffffffffffffffffffffffffffff168152602001908152602001600020805480602002602001604051908101604052809291908181526020016000905b828210156125cf57838290600052602060002090600402016040518060800160405290816000820180546123c4906138d0565b80601f01602080910402602001604051908101604052809291908181526020018280546123f0906138d0565b801561243d5780601f106124125761010080835404028352916020019161243d565b820191906000526020600020905b81548152906001019060200180831161242057829003601f168201915b505050505081526020016001820160009054906101000a900473ffffffffffffffffffffffffffffffffffffffff1673ffffffffffffffffffffffffffffffffffffffff1673ffffffffffffffffffffffffffffffffffffffff1681526020016002820180546124ac906138d0565b80601f01602080910402602001604051908101604052809291908181526020018280546124d8906138d0565b80156125255780601f106124fa57610100808354040283529160200191612525565b820191906000526020600020905b81548152906001019060200180831161250857829003601f168201915b5050505050815260200160038201805461253e906138d0565b80601f016020809104026020016040519081016040528092919081815260200182805461256a906138d0565b80156125b75780601f1061258c576101008083540402835291602001916125b7565b820191906000526020600020905b81548152906001019060200180831161259a57829003601f168201915b50505050508152505081526020019060010190612391565b50505050905090565b600260205281600052604060002081815481106125f457600080fd5b906000526020600020016000915091509054906101000a900473ffffffffffffffffffffffffffffffffffffffff1681565b60005b6000803373ffffffffffffffffffffffffffffffffffffffff1673ffffffffffffffffffffffffffffffffffffffff1681526020019081526020016000208054905081101561294d578173ffffffffffffffffffffffffffffffffffffffff166000803373ffffffffffffffffffffffffffffffffffffffff1673ffffffffffffffffffffffffffffffffffffffff16815260200190815260200160002082815481106126d9576126d86137fb565b5b906000526020600020906004020160010160009054906101000a900473ffffffffffffffffffffffffffffffffffffffff1673ffffffffffffffffffffffffffffffffffffffff161480156127d7575060405160200161273890613fbb565b604051602081830303815290604052805190602001206000803373ffffffffffffffffffffffffffffffffffffffff1673ffffffffffffffffffffffffffffffffffffffff168152602001908152602001600020828154811061279e5761279d6137fb565b5b90600052602060002090600402016002016040516020016127bf9190613d69565b60405160208183030381529060405280519060200120145b801561288c57506040516020016127ed90613dcc565b604051602081830303815290604052805190602001206000803373ffffffffffffffffffffffffffffffffffffffff1673ffffffffffffffffffffffffffffffffffffffff1681526020019081526020016000208281548110612853576128526137fb565b5b90600052602060002090600402016003016040516020016128749190613d69565b60405160208183030381529060405280519060200120145b1561293a576040518060400160405280600781526020017f6772616e746564000000000000000000000000000000000000000000000000008152506000803373ffffffffffffffffffffffffffffffffffffffff1673ffffffffffffffffffffffffffffffffffffffff1681526020019081526020016000208281548110612917576129166137fb565b5b906000526020600020906004020160030190816129349190613b19565b5061294d565b808061294590613859565b915050612629565b50600560003373ffffffffffffffffffffffffffffffffffffffff1673ffffffffffffffffffffffffffffffffffffffff168152602001908152602001600020819080600181540180825580915050600190039060005260206000200160009091909190916101000a81548173ffffffffffffffffffffffffffffffffffffffff021916908373ffffffffffffffffffffffffffffffffffffffff16021790555050565b60006020528160005260406000208181548110612a0d57600080fd5b906000526020600020906004020160009150915050806000018054612a31906138d0565b80601f0160208091040260200160405190810160405280929190818152602001828054612a5d906138d0565b8015612aaa5780601f10612a7f57610100808354040283529160200191612aaa565b820191906000526020600020905b815481529060010190602001808311612a8d57829003601f168201915b5050505050908060010160009054906101000a900473ffffffffffffffffffffffffffffffffffffffff1690806002018054612ae5906138d0565b80601f0160208091040260200160405190810160405280929190818152602001828054612b11906138d0565b8015612b5e5780601f10612b3357610100808354040283529160200191612b5e565b820191906000526020600020905b815481529060010190602001808311612b4157829003601f168201915b505050505090806003018054612b73906138d0565b80601f0160208091040260200160405190810160405280929190818152602001828054612b9f906138d0565b8015612bec5780601f10612bc157610100808354040283529160200191612bec565b820191906000526020600020905b815481529060010190602001808311612bcf57829003601f168201915b5050505050905084565b600060405180608001604052808381526020013373ffffffffffffffffffffffffffffffffffffffff1681526020016040518060400160405280600b81526020017f486f6d654164647265737300000000000000000000000000000000000000000081525081526020016040518060400160405280600781526020017f70656e64696e670000000000000000000000000000000000000000000000000081525081525090506000808473ffffffffffffffffffffffffffffffffffffffff1673ffffffffffffffffffffffffffffffffffffffff1681526020019081526020016000208190806001815401808255809150506001900390600052602060002090600402016000909190919091506000820151816000019081612d189190613b19565b5060208201518160010160006101000a81548173ffffffffffffffffffffffffffffffffffffffff021916908373ffffffffffffffffffffffffffffffffffffffff1602179055506040820151816002019081612d759190613b19565b506060820151816003019081612d8b9190613b19565b5050508273ffffffffffffffffffffffffffffffffffffffff167f2b7d0639ee74977a8480bc14e3fd576ff2fd75521087934b00d123e744022d4c3384604051612dd692919061401c565b60405180910390a2505050565b6060816000805b600360008473ffffffffffffffffffffffffffffffffffffffff1673ffffffffffffffffffffffffffffffffffffffff16815260200190815260200160002080549050811015612efa573373ffffffffffffffffffffffffffffffffffffffff16600360008573ffffffffffffffffffffffffffffffffffffffff1673ffffffffffffffffffffffffffffffffffffffff1681526020019081526020016000208281548110612e9c57612e9b6137fb565b5b9060005260206000200160009054906101000a900473ffffffffffffffffffffffffffffffffffffffff1673ffffffffffffffffffffffffffffffffffffffff1603612ee757600191505b8080612ef290613859565b915050612dea565b50801561306657836000600160008373ffffffffffffffffffffffffffffffffffffffff1673ffffffffffffffffffffffffffffffffffffffff1681526020019081526020016000206000018054612f51906138d0565b905011612f93576040517f08c379a0000000000000000000000000000000000000000000000000000000008152600401612f8a9061394d565b60405180910390fd5b600160008673ffffffffffffffffffffffffffffffffffffffff1673ffffffffffffffffffffffffffffffffffffffff1681526020019081526020016000206001018054612fe0906138d0565b80601f016020809104026020016040519081016040528092919081815260200182805461300c906138d0565b80156130595780601f1061302e57610100808354040283529160200191613059565b820191906000526020600020905b81548152906001019060200180831161303c57829003601f168201915b5050505050935050613070565b61306e6122f4565b505b5050919050565b6040518060800160405280606081526020016060815260200160608152602001606081525090565b6000604051905090565b600080fd5b600080fd5b600073ffffffffffffffffffffffffffffffffffffffff82169050919050565b60006130de826130b3565b9050919050565b6130ee816130d3565b81146130f957600080fd5b50565b60008135905061310b816130e5565b92915050565b600060208284031215613127576131266130a9565b5b6000613135848285016130fc565b91505092915050565b600081519050919050565b600082825260208201905092915050565b60005b8381101561317857808201518184015260208101905061315d565b60008484015250505050565b6000601f19601f8301169050919050565b60006131a08261313e565b6131aa8185613149565b93506131ba81856020860161315a565b6131c381613184565b840191505092915050565b600060208201905081810360008301526131e88184613195565b905092915050565b600082825260208201905092915050565b600061320c8261313e565b61321681856131f0565b935061322681856020860161315a565b61322f81613184565b840191505092915050565b600060808301600083015184820360008601526132578282613201565b915050602083015184820360208601526132718282613201565b9150506040830151848203604086015261328b8282613201565b915050606083015184820360608601526132a58282613201565b9150508091505092915050565b600060208201905081810360008301526132cc818461323a565b905092915050565b600060808201905081810360008301526132ee8187613195565b905081810360208301526133028186613195565b905081810360408301526133168185613195565b9050818103606083015261332a8184613195565b905095945050505050565b6000819050919050565b61334881613335565b811461335357600080fd5b50565b6000813590506133658161333f565b92915050565b60008060408385031215613382576133816130a9565b5b6000613390858286016130fc565b92505060206133a185828601613356565b9150509250929050565b6133b4816130d3565b82525050565b60006020820190506133cf60008301846133ab565b92915050565b600080fd5b600080fd5b7f4e487b7100000000000000000000000000000000000000000000000000000000600052604160045260246000fd5b61341782613184565b810181811067ffffffffffffffff82111715613436576134356133df565b5b80604052505050565b600061344961309f565b9050613455828261340e565b919050565b600067ffffffffffffffff821115613475576134746133df565b5b61347e82613184565b9050602081019050919050565b82818337600083830152505050565b60006134ad6134a88461345a565b61343f565b9050828152602081018484840111156134c9576134c86133da565b5b6134d484828561348b565b509392505050565b600082601f8301126134f1576134f06133d5565b5b813561350184826020860161349a565b91505092915050565b60008060408385031215613521576135206130a9565b5b600061352f858286016130fc565b925050602083013567ffffffffffffffff8111156135505761354f6130ae565b5b61355c858286016134dc565b9150509250929050565b600080600080608085870312156135805761357f6130a9565b5b600085013567ffffffffffffffff81111561359e5761359d6130ae565b5b6135aa878288016134dc565b945050602085013567ffffffffffffffff8111156135cb576135ca6130ae565b5b6135d7878288016134dc565b935050604085013567ffffffffffffffff8111156135f8576135f76130ae565b5b613604878288016134dc565b925050606085013567ffffffffffffffff811115613625576136246130ae565b5b613631878288016134dc565b91505092959194509250565b600081519050919050565b600082825260208201905092915050565b6000819050602082019050919050565b613672816130d3565b82525050565b600060808301600083015184820360008601526136958282613201565b91505060208301516136aa6020860182613669565b50604083015184820360408601526136c28282613201565b915050606083015184820360608601526136dc8282613201565b9150508091505092915050565b60006136f58383613678565b905092915050565b6000602082019050919050565b60006137158261363d565b61371f8185613648565b93508360208202850161373185613659565b8060005b8581101561376d578484038952815161374e85826136e9565b9450613759836136fd565b925060208a01995050600181019050613735565b50829750879550505050505092915050565b60006020820190508181036000830152613799818461370a565b905092915050565b600060808201905081810360008301526137bb8187613195565b90506137ca60208301866133ab565b81810360408301526137dc8185613195565b905081810360608301526137f08184613195565b905095945050505050565b7f4e487b7100000000000000000000000000000000000000000000000000000000600052603260045260246000fd5b7f4e487b7100000000000000000000000000000000000000000000000000000000600052601160045260246000fd5b600061386482613335565b91507fffffffffffffffffffffffffffffffffffffffffffffffffffffffffffffffff82036138965761389561382a565b5b600182019050919050565b7f4e487b7100000000000000000000000000000000000000000000000000000000600052602260045260246000fd5b600060028204905060018216806138e857607f821691505b6020821081036138fb576138fa6138a1565b5b50919050565b7f5573657220646f6573206e6f7420657869737400000000000000000000000000600082015250565b6000613937601383613149565b915061394282613901565b602082019050919050565b600060208201905081810360008301526139668161392a565b9050919050565b60008190508160005260206000209050919050565b60006020601f8301049050919050565b600082821b905092915050565b6000600883026139cf7fffffffffffffffffffffffffffffffffffffffffffffffffffffffffffffffff82613992565b6139d98683613992565b95508019841693508086168417925050509392505050565b6000819050919050565b6000613a16613a11613a0c84613335565b6139f1565b613335565b9050919050565b6000819050919050565b613a30836139fb565b613a44613a3c82613a1d565b84845461399f565b825550505050565b600090565b613a59613a4c565b613a64818484613a27565b505050565b5b81811015613a8857613a7d600082613a51565b600181019050613a6a565b5050565b601f821115613acd57613a9e8161396d565b613aa784613982565b81016020851015613ab6578190505b613aca613ac285613982565b830182613a69565b50505b505050565b600082821c905092915050565b6000613af060001984600802613ad2565b1980831691505092915050565b6000613b098383613adf565b9150826002028217905092915050565b613b228261313e565b67ffffffffffffffff811115613b3b57613b3a6133df565b5b613b4582546138d0565b613b50828285613a8c565b600060209050601f831160018114613b835760008415613b71578287015190505b613b7b8582613afd565b865550613be3565b601f198416613b918661396d565b60005b82811015613bb957848901518255600182019150602085019450602081019050613b94565b86831015613bd65784890151613bd2601f891682613adf565b8355505b6001600288020188555050505b505050505050565b7f4e616d6500000000000000000000000000000000000000000000000000000000600082015250565b6000613c21600483613149565b9150613c2c82613beb565b602082019050919050565b60006060820190508181036000830152613c5081613c14565b9050613c5f60208301856133ab565b8181036040830152613c718184613195565b90509392505050565b600081905092915050565b7f486f6d6541646472657373000000000000000000000000000000000000000000600082015250565b6000613cbb600b83613c7a565b9150613cc682613c85565b600b82019050919050565b6000613cdc82613cae565b9150819050919050565b60008154613cf3816138d0565b613cfd8186613c7a565b94506001821660008114613d185760018114613d2d57613d60565b60ff1983168652811515820286019350613d60565b613d368561396d565b60005b83811015613d5857815481890152600182019150602081019050613d39565b838801955050505b50505092915050565b6000613d758284613ce6565b915081905092915050565b7f70656e64696e6700000000000000000000000000000000000000000000000000600082015250565b6000613db6600783613c7a565b9150613dc182613d80565b600782019050919050565b6000613dd782613da9565b9150819050919050565b7f47656e6465720000000000000000000000000000000000000000000000000000600082015250565b6000613e17600683613149565b9150613e2282613de1565b602082019050919050565b60006060820190508181036000830152613e4681613e0a565b9050613e5560208301856133ab565b8181036040830152613e678184613195565b90509392505050565b7f444f420000000000000000000000000000000000000000000000000000000000600082015250565b6000613ea6600383613149565b9150613eb182613e70565b602082019050919050565b60006060820190508181036000830152613ed581613e99565b9050613ee460208301856133ab565b8181036040830152613ef68184613195565b90509392505050565b6000613f0c600383613c7a565b9150613f1782613e70565b600382019050919050565b6000613f2d82613eff565b9150819050919050565b7f6e616d6500000000000000000000000000000000000000000000000000000000600082015250565b6000613f6d600483613c7a565b9150613f7882613f37565b600482019050919050565b6000613f8e82613f60565b9150819050919050565b6000613fa5600683613c7a565b9150613fb082613de1565b600682019050919050565b6000613fc682613f98565b9150819050919050565b7f486f6d6520416464726573730000000000000000000000000000000000000000600082015250565b6000614006600c83613149565b915061401182613fd0565b602082019050919050565b6000606082019050818103600083015261403581613ff9565b905061404460208301856133ab565b81810360408301526140568184613195565b9050939250505056fea264697066735822122059dfb642ba80628e0c13d377c993d5381c0b1caab75af7dad06edf98626fd92464736f6c63430008130033",
  "immutableReferences": {},
  "source": "// SPDX-License-Identifier: MIT\r\npragma solidity ^0.8.18;\r\n\r\ncontract Aadhaar {\r\n    event userNotification(string field, address company, address indexed user,string name);\r\n\r\n    // struct to store user aadhar\r\n    struct User_Aadhaar {\r\n        string name;\r\n        string DOB;\r\n        string HomeAddress;\r\n        string gender;\r\n    }\r\n\r\n    struct events{\r\n        string companyName;\r\n        address companyAdress;\r\n        string field;\r\n        string status;\r\n    }\r\n\r\n    mapping(address => events[]) public eventsMapping;\r\n\r\n    mapping(address => User_Aadhaar) public aadhaarMapping; // mapping which maps user_address to his struct Aadhar\r\n\r\n    mapping(address => address[]) public accessMappingName; // mapping whihc maps user_address to the list of address which can access the user data. Used for the access modifiier\r\n    mapping(address => address[]) public accessMappingDOB;\r\n    mapping(address => address[]) public accessMappingHomeAddress;\r\n    mapping(address => address[]) public accessMappingGender;\r\n\r\n    function requestAccessName(address userAddress,string memory name) public {\r\n        // function used by company to request access\r\n        events memory ev = events(name,msg.sender,\"name\",\"pending\");\r\n        eventsMapping[userAddress].push(ev);\r\n        emit userNotification(\"Name\", msg.sender, userAddress,name);\r\n    }\r\n\r\n    function grantAccessName(address userAddress) public {\r\n        for(uint i = 0; i < eventsMapping[msg.sender].length; i++){\r\n            if (eventsMapping[msg.sender][i].companyAdress == userAddress && \r\n                keccak256(abi.encodePacked(eventsMapping[msg.sender][i].field)) == \r\n                keccak256(abi.encodePacked(\"name\")) && keccak256(abi.encodePacked(eventsMapping[msg.sender][i].status)) == keccak256(abi.encodePacked(\"pending\"))) {\r\n                eventsMapping[msg.sender][i].status = \"granted\";\r\n                break;\r\n            }\r\n        }\r\n        accessMappingName[msg.sender].push(userAddress);    \r\n    }\r\n\r\n    function getAllEvents() public view returns (events[] memory) {\r\n        return eventsMapping[msg.sender]; \r\n    }\r\n\r\n\r\n    function requestAccessDOB(address userAddress,string memory name) public {\r\n        // function used by company to request access\r\n\r\n        events memory ev = events(name,msg.sender,\"DOB\",\"pending\");\r\n        eventsMapping[userAddress].push(ev);\r\n        emit userNotification(\"DOB\", msg.sender, userAddress,name);\r\n    }\r\n\r\n    function grantAccessDOB(address userAddress) public {\r\n\r\n    \r\n        for (uint i = 0; i < eventsMapping[msg.sender].length; i++) {\r\n        \r\n            if (eventsMapping[msg.sender][i].companyAdress == userAddress && \r\n                keccak256(abi.encodePacked(eventsMapping[msg.sender][i].field)) == \r\n                keccak256(abi.encodePacked(\"DOB\")) && keccak256(abi.encodePacked(eventsMapping[msg.sender][i].status)) == keccak256(abi.encodePacked(\"pending\"))) {\r\n                eventsMapping[msg.sender][i].status = \"granted\";\r\n                break;\r\n            }\r\n    }\r\n\r\n        accessMappingDOB[msg.sender].push(userAddress);\r\n    }\r\n\r\n    function requestAccessHomeAddress(address userAddress,string memory name) public {\r\n        // function used by company to request access\r\n        events memory ev = events(name,msg.sender,\"HomeAddress\",\"pending\");\r\n        eventsMapping[userAddress].push(ev);\r\n        emit userNotification(\"Home Address\", msg.sender, userAddress,name);\r\n    }\r\n\r\n    function grantAccessHomeAddress(address userAddress) public {\r\n\r\n        for(uint i = 0; i < eventsMapping[msg.sender].length; i++){\r\n            if (eventsMapping[msg.sender][i].companyAdress == userAddress && \r\n                keccak256(abi.encodePacked(eventsMapping[msg.sender][i].field)) == \r\n                keccak256(abi.encodePacked(\"HomeAddress\")) && keccak256(abi.encodePacked(eventsMapping[msg.sender][i].status)) == keccak256(abi.encodePacked(\"pending\"))) {\r\n                eventsMapping[msg.sender][i].status = \"granted\";\r\n                break;\r\n            }\r\n        }\r\n        accessMappingHomeAddress[msg.sender].push(userAddress);\r\n    }\r\n\r\n    function requestAccessGender(address userAddress,string memory name) public {\r\n        // function used by company to request access\r\n        events memory ev = events(name,msg.sender,\"Gender\",\"pending\");\r\n        eventsMapping[userAddress].push(ev);\r\n        emit userNotification(\"Gender\", msg.sender, userAddress,name);\r\n    }\r\n\r\n    function grantAccessGender(address userAddress) public {\r\n\r\n        for(uint i = 0; i < eventsMapping[msg.sender].length; i++){\r\n            if (eventsMapping[msg.sender][i].companyAdress == userAddress && \r\n                keccak256(abi.encodePacked(eventsMapping[msg.sender][i].field)) == \r\n                keccak256(abi.encodePacked(\"Gender\")) && keccak256(abi.encodePacked(eventsMapping[msg.sender][i].status)) == keccak256(abi.encodePacked(\"pending\"))) {\r\n                eventsMapping[msg.sender][i].status = \"granted\";\r\n                break;\r\n            }\r\n        }\r\n        accessMappingGender[msg.sender].push(userAddress);\r\n    }\r\n\r\n    function getAllAccess(\r\n        address userAddress\r\n    ) public view returns (User_Aadhaar memory) {\r\n        User_Aadhaar memory user = User_Aadhaar(\r\n            retrieveName(userAddress),\r\n            retrieveDOB(userAddress),\r\n            retrieveHomeAddress(userAddress),\r\n            retrieveGender(userAddress)\r\n        );\r\n        return user;\r\n    }\r\n\r\n    //NEECHE wale commented code hai babu ye kyu padhre ho\r\n    // mapping(address => AccessRequest) public accessRequests;\r\n\r\n    // event AccessRequested(address indexed requester);\r\n\r\n    // event AccessApproved(address indexed approver);\r\n\r\n    //ISKE LIYE TU COMMENTS PADHRA BABA?? NAME SAYS ITSELF\r\n    function createUserDocuments(\r\n        string memory name,\r\n        string memory DOB,\r\n        string memory home_address,\r\n        string memory gender\r\n    ) public {\r\n        // function used by user/ML model to create new aadhar struct\r\n        User_Aadhaar memory user = User_Aadhaar(\r\n            name,\r\n            DOB,\r\n            home_address,\r\n            gender\r\n        );\r\n        aadhaarMapping[msg.sender] = user;\r\n    }\r\n\r\n    //This modifies iterates over the accessMapping and checks Ki if the user has the access or not\r\n    // modifier canAccess(address userAddress) {\r\n    //   bool found = false;\r\n    //    for (uint256 i = 0; i < accessMapping[userAddress].length; i++){\r\n    //             if (accessMapping[userAddress][i] == msg.sender) {\r\n    //                 found=true;\r\n    //             }\r\n    //         }\r\n    //   require(found);\r\n    //   _;\r\n    // }\r\n\r\n    function isNull() public pure returns (string memory) {\r\n        return \"Not Allowed\";\r\n    }\r\n\r\n    modifier canAccessName(address userAddress) {\r\n        bool found = false;\r\n        for (uint256 i = 0; i < accessMappingName[userAddress].length; i++) {\r\n            if (accessMappingName[userAddress][i] == msg.sender) {\r\n                found = true;\r\n            }\r\n        }\r\n        //   require(found,\"Not Given access by owner of Name\");\r\n        if (found) {\r\n            _;\r\n        } else {\r\n            isNull();\r\n        }\r\n    }\r\n    modifier canAccessDOB(address userAddress) {\r\n        bool found = false;\r\n        for (uint256 i = 0; i < accessMappingDOB[userAddress].length; i++) {\r\n            if (accessMappingDOB[userAddress][i] == msg.sender) {\r\n                found = true;\r\n            }\r\n        }\r\n        //   require(found,\"Not Given access by owner of DOB\");\r\n        //   _;\r\n        if (found) {\r\n            _;\r\n        } else {\r\n            isNull();\r\n        }\r\n    }\r\n    modifier canAccessHomeAddress(address userAddress) {\r\n        bool found = false;\r\n        for (\r\n            uint256 i = 0;\r\n            i < accessMappingHomeAddress[userAddress].length;\r\n            i++\r\n        ) {\r\n            if (accessMappingHomeAddress[userAddress][i] == msg.sender) {\r\n                found = true;\r\n            }\r\n        }\r\n        //   require(found,\"Not Given access by owner of Home Address\");\r\n        //   _;\r\n        if (found) {\r\n            _;\r\n        } else {\r\n            isNull();\r\n        }\r\n    }\r\n    modifier canAccessGender(address userAddress) {\r\n        bool found = false;\r\n        for (uint256 i = 0; i < accessMappingGender[userAddress].length; i++) {\r\n            if (accessMappingGender[userAddress][i] == msg.sender) {\r\n                found = true;\r\n            }\r\n        }\r\n        //   require(found,\"Not Given access by owner of Gender\");\r\n        //   _;\r\n        if (found) {\r\n            _;\r\n        } else {\r\n            isNull();\r\n        }\r\n    }\r\n\r\n    modifier doesExist(address userAddress) {\r\n        require(\r\n            bytes(aadhaarMapping[userAddress].name).length > 0,\r\n            \"User does not exist\"\r\n        );\r\n        _;\r\n    }\r\n\r\n    //first checks weather the company has the access to retrieve and then returns Name of Aadhaar to the company\r\n    function retrieveName(\r\n        address userAddress\r\n    )\r\n        public\r\n        view\r\n        canAccessName(userAddress)\r\n        doesExist(userAddress)\r\n        returns (string memory name)\r\n    {\r\n        return aadhaarMapping[userAddress].name;\r\n    }\r\n\r\n    //first checks weather the company has the access to retrieve and then returns DOB of Aadhaar to the company\r\n    function retrieveDOB(\r\n        address userAddress\r\n    )\r\n        public\r\n        view\r\n        canAccessDOB(userAddress)\r\n        doesExist(userAddress)\r\n        returns (string memory DOB)\r\n    {\r\n        return aadhaarMapping[userAddress].DOB;\r\n    }\r\n\r\n    //first checks weather the company has the access to retrieve and then returns HomeAddress of Aadhaar to the company\r\n    function retrieveHomeAddress(\r\n        address userAddress\r\n    )\r\n        public\r\n        view\r\n        canAccessHomeAddress(userAddress)\r\n        doesExist(userAddress)\r\n        returns (string memory HomeAddress)\r\n    {\r\n        return aadhaarMapping[userAddress].HomeAddress;\r\n    }\r\n\r\n    //first checks weather the company has the access to retrieve and then returns gender of Aadhaar to the company\r\n    function retrieveGender(\r\n        address userAddress\r\n    )\r\n        public\r\n        view\r\n        canAccessGender(userAddress)\r\n        doesExist(userAddress)\r\n        returns (string memory gender)\r\n    {\r\n        return aadhaarMapping[userAddress].gender;\r\n    }\r\n\r\n    function checkAllAccess(\r\n        address userAddress\r\n    ) public view doesExist(userAddress) returns (User_Aadhaar memory) {\r\n        User_Aadhaar memory user = User_Aadhaar(\r\n            retrieveName(userAddress),\r\n            retrieveDOB(userAddress),\r\n            retrieveHomeAddress(userAddress),\r\n            retrieveGender(userAddress)\r\n        );\r\n\r\n        return user;\r\n    }\r\n}\r\n",
  "sourcePath": "C:\\Users\\Devangana\\Desktop\\db\\web\\PIIShieldReturns\\contracts\\Aadhaar.sol",
  "compiler": {
    "name": "solc",
    "version": "0.8.19+commit.7dd6d404.Emscripten.clang"
  },
  "schemaVersion": "3.4.16",
  "updatedAt": "2024-09-29T13:17:44.012Z",
  "networkType": "ethereum",
  "devdoc": {
    "kind": "dev",
    "methods": {},
    "version": 1
  },
  "userdoc": {
    "kind": "user",
    "methods": {},
    "version": 1
  }
}