{
  "contractName": "Aadhaar",
  "abi": [
    {
      "anonymous": false,
      "inputs": [
        {
          "indexed": false,
          "internalType": "string",
          "name": "field",
          "type": "string"
        },
        {
          "indexed": false,
          "internalType": "address",
          "name": "company",
          "type": "address"
        },
        {
          "indexed": true,
          "internalType": "address",
          "name": "user",
          "type": "address"
        }
      ],
      "name": "userNotification",
      "type": "event"
    },
    {
      "inputs": [
        {
          "internalType": "address",
          "name": "",
          "type": "address"
        }
      ],
      "name": "aadhaarMapping",
      "outputs": [
        {
          "internalType": "string",
          "name": "name",
          "type": "string"
        },
        {
          "internalType": "string",
          "name": "DOB",
          "type": "string"
        },
        {
          "internalType": "string",
          "name": "HomeAddress",
          "type": "string"
        },
        {
          "internalType": "string",
          "name": "gender",
          "type": "string"
        }
      ],
      "stateMutability": "view",
      "type": "function"
    },
    {
      "inputs": [
        {
          "internalType": "address",
          "name": "",
          "type": "address"
        },
        {
          "internalType": "uint256",
          "name": "",
          "type": "uint256"
        }
      ],
      "name": "accessMappingDOB",
      "outputs": [
        {
          "internalType": "address",
          "name": "",
          "type": "address"
        }
      ],
      "stateMutability": "view",
      "type": "function"
    },
    {
      "inputs": [
        {
          "internalType": "address",
          "name": "",
          "type": "address"
        },
        {
          "internalType": "uint256",
          "name": "",
          "type": "uint256"
        }
      ],
      "name": "accessMappingGender",
      "outputs": [
        {
          "internalType": "address",
          "name": "",
          "type": "address"
        }
      ],
      "stateMutability": "view",
      "type": "function"
    },
    {
      "inputs": [
        {
          "internalType": "address",
          "name": "",
          "type": "address"
        },
        {
          "internalType": "uint256",
          "name": "",
          "type": "uint256"
        }
      ],
      "name": "accessMappingHomeAddress",
      "outputs": [
        {
          "internalType": "address",
          "name": "",
          "type": "address"
        }
      ],
      "stateMutability": "view",
      "type": "function"
    },
    {
      "inputs": [
        {
          "internalType": "address",
          "name": "",
          "type": "address"
        },
        {
          "internalType": "uint256",
          "name": "",
          "type": "uint256"
        }
      ],
      "name": "accessMappingName",
      "outputs": [
        {
          "internalType": "address",
          "name": "",
          "type": "address"
        }
      ],
      "stateMutability": "view",
      "type": "function"
    },
    {
      "inputs": [
        {
          "internalType": "address",
          "name": "userAddress",
          "type": "address"
        }
      ],
      "name": "requestAccessName",
      "outputs": [],
      "stateMutability": "nonpayable",
      "type": "function"
    },
    {
      "inputs": [
        {
          "internalType": "address",
          "name": "userAddress",
          "type": "address"
        }
      ],
      "name": "grantAccessName",
      "outputs": [],
      "stateMutability": "nonpayable",
      "type": "function"
    },
    {
      "inputs": [
        {
          "internalType": "address",
          "name": "userAddress",
          "type": "address"
        }
      ],
      "name": "requestAccessDOB",
      "outputs": [],
      "stateMutability": "nonpayable",
      "type": "function"
    },
    {
      "inputs": [
        {
          "internalType": "address",
          "name": "userAddress",
          "type": "address"
        }
      ],
      "name": "grantAccessDOB",
      "outputs": [],
      "stateMutability": "nonpayable",
      "type": "function"
    },
    {
      "inputs": [
        {
          "internalType": "address",
          "name": "userAddress",
          "type": "address"
        }
      ],
      "name": "requestAccessHomeAddress",
      "outputs": [],
      "stateMutability": "nonpayable",
      "type": "function"
    },
    {
      "inputs": [
        {
          "internalType": "address",
          "name": "userAddress",
          "type": "address"
        }
      ],
      "name": "grantAccessHomeAddress",
      "outputs": [],
      "stateMutability": "nonpayable",
      "type": "function"
    },
    {
      "inputs": [
        {
          "internalType": "address",
          "name": "userAddress",
          "type": "address"
        }
      ],
      "name": "requestAccessGender",
      "outputs": [],
      "stateMutability": "nonpayable",
      "type": "function"
    },
    {
      "inputs": [
        {
          "internalType": "address",
          "name": "userAddress",
          "type": "address"
        }
      ],
      "name": "grantAccessGender",
      "outputs": [],
      "stateMutability": "nonpayable",
      "type": "function"
    },
    {
      "inputs": [
        {
          "internalType": "address",
          "name": "userAddress",
          "type": "address"
        }
      ],
      "name": "getAllAccess",
      "outputs": [
        {
          "components": [
            {
              "internalType": "string",
              "name": "name",
              "type": "string"
            },
            {
              "internalType": "string",
              "name": "DOB",
              "type": "string"
            },
            {
              "internalType": "string",
              "name": "HomeAddress",
              "type": "string"
            },
            {
              "internalType": "string",
              "name": "gender",
              "type": "string"
            }
          ],
          "internalType": "struct Aadhaar.User_Aadhaar",
          "name": "",
          "type": "tuple"
        }
      ],
      "stateMutability": "view",
      "type": "function"
    },
    {
      "inputs": [
        {
          "internalType": "string",
          "name": "name",
          "type": "string"
        },
        {
          "internalType": "string",
          "name": "DOB",
          "type": "string"
        },
        {
          "internalType": "string",
          "name": "home_address",
          "type": "string"
        },
        {
          "internalType": "string",
          "name": "gender",
          "type": "string"
        }
      ],
      "name": "createUserDocuments",
      "outputs": [],
      "stateMutability": "nonpayable",
      "type": "function"
    },
    {
      "inputs": [],
      "name": "isNull",
      "outputs": [
        {
          "internalType": "string",
          "name": "",
          "type": "string"
        }
      ],
      "stateMutability": "pure",
      "type": "function"
    },
    {
      "inputs": [
        {
          "internalType": "address",
          "name": "userAddress",
          "type": "address"
        }
      ],
      "name": "retrieveName",
      "outputs": [
        {
          "internalType": "string",
          "name": "name",
          "type": "string"
        }
      ],
      "stateMutability": "view",
      "type": "function"
    },
    {
      "inputs": [
        {
          "internalType": "address",
          "name": "userAddress",
          "type": "address"
        }
      ],
      "name": "retrieveDOB",
      "outputs": [
        {
          "internalType": "string",
          "name": "DOB",
          "type": "string"
        }
      ],
      "stateMutability": "view",
      "type": "function"
    },
    {
      "inputs": [
        {
          "internalType": "address",
          "name": "userAddress",
          "type": "address"
        }
      ],
      "name": "retrieveHomeAddress",
      "outputs": [
        {
          "internalType": "string",
          "name": "HomeAddress",
          "type": "string"
        }
      ],
      "stateMutability": "view",
      "type": "function"
    },
    {
      "inputs": [
        {
          "internalType": "address",
          "name": "userAddress",
          "type": "address"
        }
      ],
      "name": "retrieveGender",
      "outputs": [
        {
          "internalType": "string",
          "name": "gender",
          "type": "string"
        }
      ],
      "stateMutability": "view",
      "type": "function"
    },
    {
      "inputs": [
        {
          "internalType": "address",
          "name": "userAddress",
          "type": "address"
        }
      ],
      "name": "checkAllAccess",
      "outputs": [
        {
          "components": [
            {
              "internalType": "string",
              "name": "name",
              "type": "string"
            },
            {
              "internalType": "string",
              "name": "DOB",
              "type": "string"
            },
            {
              "internalType": "string",
              "name": "HomeAddress",
              "type": "string"
            },
            {
              "internalType": "string",
              "name": "gender",
              "type": "string"
            }
          ],
          "internalType": "struct Aadhaar.User_Aadhaar",
          "name": "",
          "type": "tuple"
        }
      ],
      "stateMutability": "view",
      "type": "function"
    }
  ],
  "bytecode": "0x608060405234801561001057600080fd5b506123c2806100206000396000f3fe608060405234801561001057600080fd5b50600436106101375760003560e01c80639e93f62f116100b8578063b5da01141161007c578063b5da011414610397578063be9d927e146103b5578063c5247f22146103d1578063c6ab9a3a14610401578063d4ff37131461041d578063fb729e8f1461043957610137565b80639e93f62f146102cf578063a6cce62b146102ff578063aa1298d51461031b578063acafa7a51461034b578063b538907e1461036757610137565b8063640022a8116100ff578063640022a81461022f578063686b1a701461024b5780636ad0e0561461026757806386a751f8146102835780639dd9fd63146102b357610137565b8063026b599b1461013c57806309722e591461016c57806315c97d071461019c57806332c733b2146101cc57806339f449fd146101ff575b600080fd5b610156600480360381019061015191906118e4565b610469565b60405161016391906119a1565b60405180910390f35b610186600480360381019061018191906118e4565b6106fb565b60405161019391906119a1565b60405180910390f35b6101b660048036038101906101b191906118e4565b61098d565b6040516101c39190611a85565b60405180910390f35b6101e660048036038101906101e191906118e4565b6109e3565b6040516101f69493929190611aa7565b60405180910390f35b61021960048036038101906102149190611b3e565b610c33565b6040516102269190611b8d565b60405180910390f35b610249600480360381019061024491906118e4565b610c81565b005b610265600480360381019061026091906118e4565b610cd2565b005b610281600480360381019061027c91906118e4565b610d75565b005b61029d600480360381019061029891906118e4565b610dc6565b6040516102aa9190611a85565b60405180910390f35b6102cd60048036038101906102c89190611cdd565b610eae565b005b6102e960048036038101906102e49190611b3e565b610f74565b6040516102f69190611b8d565b60405180910390f35b610319600480360381019061031491906118e4565b610fc2565b005b61033560048036038101906103309190611b3e565b611065565b6040516103429190611b8d565b60405180910390f35b610365600480360381019061036091906118e4565b6110b3565b005b610381600480360381019061037c91906118e4565b611156565b60405161038e91906119a1565b60405180910390f35b61039f6113e8565b6040516103ac91906119a1565b60405180910390f35b6103cf60048036038101906103ca91906118e4565b611425565b005b6103eb60048036038101906103e69190611b3e565b611476565b6040516103f89190611b8d565b60405180910390f35b61041b600480360381019061041691906118e4565b6114c4565b005b610437600480360381019061043291906118e4565b611515565b005b610453600480360381019061044e91906118e4565b6115b8565b60405161046091906119a1565b60405180910390f35b6060816000805b600160008473ffffffffffffffffffffffffffffffffffffffff1673ffffffffffffffffffffffffffffffffffffffff16815260200190815260200160002080549050811015610580573373ffffffffffffffffffffffffffffffffffffffff16600160008573ffffffffffffffffffffffffffffffffffffffff1673ffffffffffffffffffffffffffffffffffffffff168152602001908152602001600020828154811061052257610521611db4565b5b9060005260206000200160009054906101000a900473ffffffffffffffffffffffffffffffffffffffff1673ffffffffffffffffffffffffffffffffffffffff160361056d57600191505b808061057890611e12565b915050610470565b5080156106ea578360008060008373ffffffffffffffffffffffffffffffffffffffff1673ffffffffffffffffffffffffffffffffffffffff16815260200190815260200160002060000180546105d690611e89565b905011610618576040517f08c379a000000000000000000000000000000000000000000000000000000000815260040161060f90611f06565b60405180910390fd5b6000808673ffffffffffffffffffffffffffffffffffffffff1673ffffffffffffffffffffffffffffffffffffffff168152602001908152602001600020600001805461066490611e89565b80601f016020809104026020016040519081016040528092919081815260200182805461069090611e89565b80156106dd5780601f106106b2576101008083540402835291602001916106dd565b820191906000526020600020905b8154815290600101906020018083116106c057829003601f168201915b50505050509350506106f4565b6106f26113e8565b505b5050919050565b6060816000805b600460008473ffffffffffffffffffffffffffffffffffffffff1673ffffffffffffffffffffffffffffffffffffffff16815260200190815260200160002080549050811015610812573373ffffffffffffffffffffffffffffffffffffffff16600460008573ffffffffffffffffffffffffffffffffffffffff1673ffffffffffffffffffffffffffffffffffffffff16815260200190815260200160002082815481106107b4576107b3611db4565b5b9060005260206000200160009054906101000a900473ffffffffffffffffffffffffffffffffffffffff1673ffffffffffffffffffffffffffffffffffffffff16036107ff57600191505b808061080a90611e12565b915050610702565b50801561097c578360008060008373ffffffffffffffffffffffffffffffffffffffff1673ffffffffffffffffffffffffffffffffffffffff168152602001908152602001600020600001805461086890611e89565b9050116108aa576040517f08c379a00000000000000000000000000000000000000000000000000000000081526004016108a190611f06565b60405180910390fd5b6000808673ffffffffffffffffffffffffffffffffffffffff1673ffffffffffffffffffffffffffffffffffffffff16815260200190815260200160002060030180546108f690611e89565b80601f016020809104026020016040519081016040528092919081815260200182805461092290611e89565b801561096f5780601f106109445761010080835404028352916020019161096f565b820191906000526020600020905b81548152906001019060200180831161095257829003601f168201915b5050505050935050610986565b6109846113e8565b505b5050919050565b61099561184a565b600060405180608001604052806109ab85610469565b81526020016109b9856115b8565b81526020016109c785611156565b81526020016109d5856106fb565b815250905080915050919050565b6000602052806000526040600020600091509050806000018054610a0690611e89565b80601f0160208091040260200160405190810160405280929190818152602001828054610a3290611e89565b8015610a7f5780601f10610a5457610100808354040283529160200191610a7f565b820191906000526020600020905b815481529060010190602001808311610a6257829003601f168201915b505050505090806001018054610a9490611e89565b80601f0160208091040260200160405190810160405280929190818152602001828054610ac090611e89565b8015610b0d5780601f10610ae257610100808354040283529160200191610b0d565b820191906000526020600020905b815481529060010190602001808311610af057829003601f168201915b505050505090806002018054610b2290611e89565b80601f0160208091040260200160405190810160405280929190818152602001828054610b4e90611e89565b8015610b9b5780601f10610b7057610100808354040283529160200191610b9b565b820191906000526020600020905b815481529060010190602001808311610b7e57829003601f168201915b505050505090806003018054610bb090611e89565b80601f0160208091040260200160405190810160405280929190818152602001828054610bdc90611e89565b8015610c295780601f10610bfe57610100808354040283529160200191610c29565b820191906000526020600020905b815481529060010190602001808311610c0c57829003601f168201915b5050505050905084565b60036020528160005260406000208181548110610c4f57600080fd5b906000526020600020016000915091509054906101000a900473ffffffffffffffffffffffffffffffffffffffff1681565b8073ffffffffffffffffffffffffffffffffffffffff167f5a604d3e02fef07e6c137674ec7521e80d8c832e55ba60c409d503b85ef2fb0433604051610cc79190611f72565b60405180910390a250565b600360003373ffffffffffffffffffffffffffffffffffffffff1673ffffffffffffffffffffffffffffffffffffffff168152602001908152602001600020819080600181540180825580915050600190039060005260206000200160009091909190916101000a81548173ffffffffffffffffffffffffffffffffffffffff021916908373ffffffffffffffffffffffffffffffffffffffff16021790555050565b8073ffffffffffffffffffffffffffffffffffffffff167f5a604d3e02fef07e6c137674ec7521e80d8c832e55ba60c409d503b85ef2fb0433604051610dbb9190611fec565b60405180910390a250565b610dce61184a565b8160008060008373ffffffffffffffffffffffffffffffffffffffff1673ffffffffffffffffffffffffffffffffffffffff1681526020019081526020016000206000018054610e1d90611e89565b905011610e5f576040517f08c379a0000000000000000000000000000000000000000000000000000000008152600401610e5690611f06565b60405180910390fd5b60006040518060800160405280610e7586610469565b8152602001610e83866115b8565b8152602001610e9186611156565b8152602001610e9f866106fb565b81525090508092505050919050565b60006040518060800160405280868152602001858152602001848152602001838152509050806000803373ffffffffffffffffffffffffffffffffffffffff1673ffffffffffffffffffffffffffffffffffffffff1681526020019081526020016000206000820151816000019081610f2791906121c6565b506020820151816001019081610f3d91906121c6565b506040820151816002019081610f5391906121c6565b506060820151816003019081610f6991906121c6565b509050505050505050565b60046020528160005260406000208181548110610f9057600080fd5b906000526020600020016000915091509054906101000a900473ffffffffffffffffffffffffffffffffffffffff1681565b600260003373ffffffffffffffffffffffffffffffffffffffff1673ffffffffffffffffffffffffffffffffffffffff168152602001908152602001600020819080600181540180825580915050600190039060005260206000200160009091909190916101000a81548173ffffffffffffffffffffffffffffffffffffffff021916908373ffffffffffffffffffffffffffffffffffffffff16021790555050565b6002602052816000526040600020818154811061108157600080fd5b906000526020600020016000915091509054906101000a900473ffffffffffffffffffffffffffffffffffffffff1681565b600160003373ffffffffffffffffffffffffffffffffffffffff1673ffffffffffffffffffffffffffffffffffffffff168152602001908152602001600020819080600181540180825580915050600190039060005260206000200160009091909190916101000a81548173ffffffffffffffffffffffffffffffffffffffff021916908373ffffffffffffffffffffffffffffffffffffffff16021790555050565b6060816000805b600360008473ffffffffffffffffffffffffffffffffffffffff1673ffffffffffffffffffffffffffffffffffffffff1681526020019081526020016000208054905081101561126d573373ffffffffffffffffffffffffffffffffffffffff16600360008573ffffffffffffffffffffffffffffffffffffffff1673ffffffffffffffffffffffffffffffffffffffff168152602001908152602001600020828154811061120f5761120e611db4565b5b9060005260206000200160009054906101000a900473ffffffffffffffffffffffffffffffffffffffff1673ffffffffffffffffffffffffffffffffffffffff160361125a57600191505b808061126590611e12565b91505061115d565b5080156113d7578360008060008373ffffffffffffffffffffffffffffffffffffffff1673ffffffffffffffffffffffffffffffffffffffff16815260200190815260200160002060000180546112c390611e89565b905011611305576040517f08c379a00000000000000000000000000000000000000000000000000000000081526004016112fc90611f06565b60405180910390fd5b6000808673ffffffffffffffffffffffffffffffffffffffff1673ffffffffffffffffffffffffffffffffffffffff168152602001908152602001600020600201805461135190611e89565b80601f016020809104026020016040519081016040528092919081815260200182805461137d90611e89565b80156113ca5780601f1061139f576101008083540402835291602001916113ca565b820191906000526020600020905b8154815290600101906020018083116113ad57829003601f168201915b50505050509350506113e1565b6113df6113e8565b505b5050919050565b60606040518060400160405280600b81526020017f4e6f7420416c6c6f776564000000000000000000000000000000000000000000815250905090565b8073ffffffffffffffffffffffffffffffffffffffff167f5a604d3e02fef07e6c137674ec7521e80d8c832e55ba60c409d503b85ef2fb043360405161146b91906122e4565b60405180910390a250565b6001602052816000526040600020818154811061149257600080fd5b906000526020600020016000915091509054906101000a900473ffffffffffffffffffffffffffffffffffffffff1681565b8073ffffffffffffffffffffffffffffffffffffffff167f5a604d3e02fef07e6c137674ec7521e80d8c832e55ba60c409d503b85ef2fb043360405161150a919061235e565b60405180910390a250565b600460003373ffffffffffffffffffffffffffffffffffffffff1673ffffffffffffffffffffffffffffffffffffffff168152602001908152602001600020819080600181540180825580915050600190039060005260206000200160009091909190916101000a81548173ffffffffffffffffffffffffffffffffffffffff021916908373ffffffffffffffffffffffffffffffffffffffff16021790555050565b6060816000805b600260008473ffffffffffffffffffffffffffffffffffffffff1673ffffffffffffffffffffffffffffffffffffffff168152602001908152602001600020805490508110156116cf573373ffffffffffffffffffffffffffffffffffffffff16600260008573ffffffffffffffffffffffffffffffffffffffff1673ffffffffffffffffffffffffffffffffffffffff168152602001908152602001600020828154811061167157611670611db4565b5b9060005260206000200160009054906101000a900473ffffffffffffffffffffffffffffffffffffffff1673ffffffffffffffffffffffffffffffffffffffff16036116bc57600191505b80806116c790611e12565b9150506115bf565b508015611839578360008060008373ffffffffffffffffffffffffffffffffffffffff1673ffffffffffffffffffffffffffffffffffffffff168152602001908152602001600020600001805461172590611e89565b905011611767576040517f08c379a000000000000000000000000000000000000000000000000000000000815260040161175e90611f06565b60405180910390fd5b6000808673ffffffffffffffffffffffffffffffffffffffff1673ffffffffffffffffffffffffffffffffffffffff16815260200190815260200160002060010180546117b390611e89565b80601f01602080910402602001604051908101604052809291908181526020018280546117df90611e89565b801561182c5780601f106118015761010080835404028352916020019161182c565b820191906000526020600020905b81548152906001019060200180831161180f57829003601f168201915b5050505050935050611843565b6118416113e8565b505b5050919050565b6040518060800160405280606081526020016060815260200160608152602001606081525090565b6000604051905090565b600080fd5b600080fd5b600073ffffffffffffffffffffffffffffffffffffffff82169050919050565b60006118b182611886565b9050919050565b6118c1816118a6565b81146118cc57600080fd5b50565b6000813590506118de816118b8565b92915050565b6000602082840312156118fa576118f961187c565b5b6000611908848285016118cf565b91505092915050565b600081519050919050565b600082825260208201905092915050565b60005b8381101561194b578082015181840152602081019050611930565b60008484015250505050565b6000601f19601f8301169050919050565b600061197382611911565b61197d818561191c565b935061198d81856020860161192d565b61199681611957565b840191505092915050565b600060208201905081810360008301526119bb8184611968565b905092915050565b600082825260208201905092915050565b60006119df82611911565b6119e981856119c3565b93506119f981856020860161192d565b611a0281611957565b840191505092915050565b60006080830160008301518482036000860152611a2a82826119d4565b91505060208301518482036020860152611a4482826119d4565b91505060408301518482036040860152611a5e82826119d4565b91505060608301518482036060860152611a7882826119d4565b9150508091505092915050565b60006020820190508181036000830152611a9f8184611a0d565b905092915050565b60006080820190508181036000830152611ac18187611968565b90508181036020830152611ad58186611968565b90508181036040830152611ae98185611968565b90508181036060830152611afd8184611968565b905095945050505050565b6000819050919050565b611b1b81611b08565b8114611b2657600080fd5b50565b600081359050611b3881611b12565b92915050565b60008060408385031215611b5557611b5461187c565b5b6000611b63858286016118cf565b9250506020611b7485828601611b29565b9150509250929050565b611b87816118a6565b82525050565b6000602082019050611ba26000830184611b7e565b92915050565b600080fd5b600080fd5b7f4e487b7100000000000000000000000000000000000000000000000000000000600052604160045260246000fd5b611bea82611957565b810181811067ffffffffffffffff82111715611c0957611c08611bb2565b5b80604052505050565b6000611c1c611872565b9050611c288282611be1565b919050565b600067ffffffffffffffff821115611c4857611c47611bb2565b5b611c5182611957565b9050602081019050919050565b82818337600083830152505050565b6000611c80611c7b84611c2d565b611c12565b905082815260208101848484011115611c9c57611c9b611bad565b5b611ca7848285611c5e565b509392505050565b600082601f830112611cc457611cc3611ba8565b5b8135611cd4848260208601611c6d565b91505092915050565b60008060008060808587031215611cf757611cf661187c565b5b600085013567ffffffffffffffff811115611d1557611d14611881565b5b611d2187828801611caf565b945050602085013567ffffffffffffffff811115611d4257611d41611881565b5b611d4e87828801611caf565b935050604085013567ffffffffffffffff811115611d6f57611d6e611881565b5b611d7b87828801611caf565b925050606085013567ffffffffffffffff811115611d9c57611d9b611881565b5b611da887828801611caf565b91505092959194509250565b7f4e487b7100000000000000000000000000000000000000000000000000000000600052603260045260246000fd5b7f4e487b7100000000000000000000000000000000000000000000000000000000600052601160045260246000fd5b6000611e1d82611b08565b91507fffffffffffffffffffffffffffffffffffffffffffffffffffffffffffffffff8203611e4f57611e4e611de3565b5b600182019050919050565b7f4e487b7100000000000000000000000000000000000000000000000000000000600052602260045260246000fd5b60006002820490506001821680611ea157607f821691505b602082108103611eb457611eb3611e5a565b5b50919050565b7f5573657220646f6573206e6f7420657869737400000000000000000000000000600082015250565b6000611ef060138361191c565b9150611efb82611eba565b602082019050919050565b60006020820190508181036000830152611f1f81611ee3565b9050919050565b7f4e616d6500000000000000000000000000000000000000000000000000000000600082015250565b6000611f5c60048361191c565b9150611f6782611f26565b602082019050919050565b60006040820190508181036000830152611f8b81611f4f565b9050611f9a6020830184611b7e565b92915050565b7f444f420000000000000000000000000000000000000000000000000000000000600082015250565b6000611fd660038361191c565b9150611fe182611fa0565b602082019050919050565b6000604082019050818103600083015261200581611fc9565b90506120146020830184611b7e565b92915050565b60008190508160005260206000209050919050565b60006020601f8301049050919050565b600082821b905092915050565b60006008830261207c7fffffffffffffffffffffffffffffffffffffffffffffffffffffffffffffffff8261203f565b612086868361203f565b95508019841693508086168417925050509392505050565b6000819050919050565b60006120c36120be6120b984611b08565b61209e565b611b08565b9050919050565b6000819050919050565b6120dd836120a8565b6120f16120e9826120ca565b84845461204c565b825550505050565b600090565b6121066120f9565b6121118184846120d4565b505050565b5b818110156121355761212a6000826120fe565b600181019050612117565b5050565b601f82111561217a5761214b8161201a565b6121548461202f565b81016020851015612163578190505b61217761216f8561202f565b830182612116565b50505b505050565b600082821c905092915050565b600061219d6000198460080261217f565b1980831691505092915050565b60006121b6838361218c565b9150826002028217905092915050565b6121cf82611911565b67ffffffffffffffff8111156121e8576121e7611bb2565b5b6121f28254611e89565b6121fd828285612139565b600060209050601f831160018114612230576000841561221e578287015190505b61222885826121aa565b865550612290565b601f19841661223e8661201a565b60005b8281101561226657848901518255600182019150602085019450602081019050612241565b86831015612283578489015161227f601f89168261218c565b8355505b6001600288020188555050505b505050505050565b7f486f6d6520416464726573730000000000000000000000000000000000000000600082015250565b60006122ce600c8361191c565b91506122d982612298565b602082019050919050565b600060408201905081810360008301526122fd816122c1565b905061230c6020830184611b7e565b92915050565b7f47656e6465720000000000000000000000000000000000000000000000000000600082015250565b600061234860068361191c565b915061235382612312565b602082019050919050565b600060408201905081810360008301526123778161233b565b90506123866020830184611b7e565b9291505056fea2646970667358221220005e2032599482ab71f0cea938c2b15b929ce2fc5fc72724b418e091066e185364736f6c63430008130033",
  "immutableReferences": {},
  "source": "// SPDX-License-Identifier: MIT\r\npragma solidity ^0.8.18;\r\n\r\ncontract Aadhaar {\r\n    event userNotification(string field, address company, address indexed user);\r\n\r\n    // struct to store user aadhar\r\n    struct User_Aadhaar {\r\n        string name;\r\n        string DOB;\r\n        string HomeAddress;\r\n        string gender;\r\n    }\r\n\r\n    mapping(address => User_Aadhaar) public aadhaarMapping; // mapping which maps user_address to his struct Aadhar\r\n\r\n    mapping(address => address[]) public accessMappingName; // mapping whihc maps user_address to the list of address which can access the user data. Used for the access modifiier\r\n    mapping(address => address[]) public accessMappingDOB;\r\n    mapping(address => address[]) public accessMappingHomeAddress;\r\n    mapping(address => address[]) public accessMappingGender;\r\n\r\n    function requestAccessName(address userAddress) public {\r\n        // function used by company to request access\r\n\r\n        emit userNotification(\"Name\", msg.sender, userAddress);\r\n    }\r\n\r\n    function grantAccessName(address userAddress) public {\r\n        accessMappingName[msg.sender].push(userAddress);    \r\n    }\r\n\r\n    function requestAccessDOB(address userAddress) public {\r\n        // function used by company to request access\r\n        emit userNotification(\"DOB\", msg.sender, userAddress);\r\n    }\r\n\r\n    function grantAccessDOB(address userAddress) public {\r\n        accessMappingDOB[msg.sender].push(userAddress);\r\n    }\r\n\r\n    function requestAccessHomeAddress(address userAddress) public {\r\n        // function used by company to request access\r\n        emit userNotification(\"Home Address\", msg.sender, userAddress);\r\n    }\r\n\r\n    function grantAccessHomeAddress(address userAddress) public {\r\n        accessMappingHomeAddress[msg.sender].push(userAddress);\r\n    }\r\n\r\n    function requestAccessGender(address userAddress) public {\r\n        // function used by company to request access\r\n        emit userNotification(\"Gender\", msg.sender, userAddress);\r\n    }\r\n\r\n    function grantAccessGender(address userAddress) public {\r\n        accessMappingGender[msg.sender].push(userAddress);\r\n    }\r\n\r\n    function getAllAccess(\r\n        address userAddress\r\n    ) public view returns (User_Aadhaar memory) {\r\n        User_Aadhaar memory user = User_Aadhaar(\r\n            retrieveName(userAddress),\r\n            retrieveDOB(userAddress),\r\n            retrieveHomeAddress(userAddress),\r\n            retrieveGender(userAddress)\r\n        );\r\n        return user;\r\n    }\r\n\r\n    //NEECHE wale commented code hai babu ye kyu padhre ho\r\n    // mapping(address => AccessRequest) public accessRequests;\r\n\r\n    // event AccessRequested(address indexed requester);\r\n\r\n    // event AccessApproved(address indexed approver);\r\n\r\n    //ISKE LIYE TU COMMENTS PADHRA BABA?? NAME SAYS ITSELF\r\n    function createUserDocuments(\r\n        string memory name,\r\n        string memory DOB,\r\n        string memory home_address,\r\n        string memory gender\r\n    ) public {\r\n        // function used by user/ML model to create new aadhar struct\r\n        User_Aadhaar memory user = User_Aadhaar(\r\n            name,\r\n            DOB,\r\n            home_address,\r\n            gender\r\n        );\r\n        aadhaarMapping[msg.sender] = user;\r\n    }\r\n\r\n    //This modifies iterates over the accessMapping and checks Ki if the user has the access or not\r\n    // modifier canAccess(address userAddress) {\r\n    //   bool found = false;\r\n    //    for (uint256 i = 0; i < accessMapping[userAddress].length; i++){\r\n    //             if (accessMapping[userAddress][i] == msg.sender) {\r\n    //                 found=true;\r\n    //             }\r\n    //         }\r\n    //   require(found);\r\n    //   _;\r\n    // }\r\n\r\n    function isNull() public pure returns (string memory) {\r\n        return \"Not Allowed\";\r\n    }\r\n\r\n    modifier canAccessName(address userAddress) {\r\n        bool found = false;\r\n        for (uint256 i = 0; i < accessMappingName[userAddress].length; i++) {\r\n            if (accessMappingName[userAddress][i] == msg.sender) {\r\n                found = true;\r\n            }\r\n        }\r\n        //   require(found,\"Not Given access by owner of Name\");\r\n        if (found) {\r\n            _;\r\n        } else {\r\n            isNull();\r\n        }\r\n    }\r\n    modifier canAccessDOB(address userAddress) {\r\n        bool found = false;\r\n        for (uint256 i = 0; i < accessMappingDOB[userAddress].length; i++) {\r\n            if (accessMappingDOB[userAddress][i] == msg.sender) {\r\n                found = true;\r\n            }\r\n        }\r\n        //   require(found,\"Not Given access by owner of DOB\");\r\n        //   _;\r\n        if (found) {\r\n            _;\r\n        } else {\r\n            isNull();\r\n        }\r\n    }\r\n    modifier canAccessHomeAddress(address userAddress) {\r\n        bool found = false;\r\n        for (\r\n            uint256 i = 0;\r\n            i < accessMappingHomeAddress[userAddress].length;\r\n            i++\r\n        ) {\r\n            if (accessMappingHomeAddress[userAddress][i] == msg.sender) {\r\n                found = true;\r\n            }\r\n        }\r\n        //   require(found,\"Not Given access by owner of Home Address\");\r\n        //   _;\r\n        if (found) {\r\n            _;\r\n        } else {\r\n            isNull();\r\n        }\r\n    }\r\n    modifier canAccessGender(address userAddress) {\r\n        bool found = false;\r\n        for (uint256 i = 0; i < accessMappingGender[userAddress].length; i++) {\r\n            if (accessMappingGender[userAddress][i] == msg.sender) {\r\n                found = true;\r\n            }\r\n        }\r\n        //   require(found,\"Not Given access by owner of Gender\");\r\n        //   _;\r\n        if (found) {\r\n            _;\r\n        } else {\r\n            isNull();\r\n        }\r\n    }\r\n\r\n    modifier doesExist(address userAddress) {\r\n        require(\r\n            bytes(aadhaarMapping[userAddress].name).length > 0,\r\n            \"User does not exist\"\r\n        );\r\n        _;\r\n    }\r\n\r\n    //first checks weather the company has the access to retrieve and then returns Name of Aadhaar to the company\r\n    function retrieveName(\r\n        address userAddress\r\n    )\r\n        public\r\n        view\r\n        canAccessName(userAddress)\r\n        doesExist(userAddress)\r\n        returns (string memory name)\r\n    {\r\n        return aadhaarMapping[userAddress].name;\r\n    }\r\n\r\n    //first checks weather the company has the access to retrieve and then returns DOB of Aadhaar to the company\r\n    function retrieveDOB(\r\n        address userAddress\r\n    )\r\n        public\r\n        view\r\n        canAccessDOB(userAddress)\r\n        doesExist(userAddress)\r\n        returns (string memory DOB)\r\n    {\r\n        return aadhaarMapping[userAddress].DOB;\r\n    }\r\n\r\n    //first checks weather the company has the access to retrieve and then returns HomeAddress of Aadhaar to the company\r\n    function retrieveHomeAddress(\r\n        address userAddress\r\n    )\r\n        public\r\n        view\r\n        canAccessHomeAddress(userAddress)\r\n        doesExist(userAddress)\r\n        returns (string memory HomeAddress)\r\n    {\r\n        return aadhaarMapping[userAddress].HomeAddress;\r\n    }\r\n\r\n    //first checks weather the company has the access to retrieve and then returns gender of Aadhaar to the company\r\n    function retrieveGender(\r\n        address userAddress\r\n    )\r\n        public\r\n        view\r\n        canAccessGender(userAddress)\r\n        doesExist(userAddress)\r\n        returns (string memory gender)\r\n    {\r\n        return aadhaarMapping[userAddress].gender;\r\n    }\r\n\r\n    function checkAllAccess(\r\n        address userAddress\r\n    ) public view doesExist(userAddress) returns (User_Aadhaar memory) {\r\n        User_Aadhaar memory user = User_Aadhaar(\r\n            retrieveName(userAddress),\r\n            retrieveDOB(userAddress),\r\n            retrieveHomeAddress(userAddress),\r\n            retrieveGender(userAddress)\r\n        );\r\n\r\n        return user;\r\n    }\r\n}\r\n",
  "sourcePath": "C:\\Users\\ASUS\\OneDrive\\Desktop\\New Projects\\PIIShieldReturns\\contracts\\Aadhaar.sol",
  "compiler": {
    "name": "solc",
    "version": "0.8.19+commit.7dd6d404.Emscripten.clang"
  },
  "schemaVersion": "3.4.16",
  "updatedAt": "2024-09-28T17:57:29.956Z",
  "devdoc": {
    "kind": "dev",
    "methods": {},
    "version": 1
  },
  "userdoc": {
    "kind": "user",
    "methods": {},
    "version": 1
  }
}