{
  "contractName": "Aadhaar",
  "abi": [
    {
      "anonymous": false,
      "inputs": [
        {
          "indexed": false,
          "internalType": "string",
          "name": "field",
          "type": "string"
        },
        {
          "indexed": false,
          "internalType": "address",
          "name": "company",
          "type": "address"
        },
        {
          "indexed": true,
          "internalType": "address",
          "name": "user",
          "type": "address"
        },
        {
          "indexed": false,
          "internalType": "string",
          "name": "name",
          "type": "string"
        }
      ],
      "name": "userNotification",
      "type": "event"
    },
    {
      "inputs": [
        {
          "internalType": "address",
          "name": "",
          "type": "address"
        }
      ],
      "name": "aadhaarMapping",
      "outputs": [
        {
          "internalType": "string",
          "name": "name",
          "type": "string"
        },
        {
          "internalType": "string",
          "name": "DOB",
          "type": "string"
        },
        {
          "internalType": "string",
          "name": "HomeAddress",
          "type": "string"
        },
        {
          "internalType": "string",
          "name": "gender",
          "type": "string"
        }
      ],
      "stateMutability": "view",
      "type": "function",
      "constant": true
    },
    {
      "inputs": [
        {
          "internalType": "address",
          "name": "",
          "type": "address"
        },
        {
          "internalType": "uint256",
          "name": "",
          "type": "uint256"
        }
      ],
      "name": "accessMappingDOB",
      "outputs": [
        {
          "internalType": "address",
          "name": "",
          "type": "address"
        }
      ],
      "stateMutability": "view",
      "type": "function",
      "constant": true
    },
    {
      "inputs": [
        {
          "internalType": "address",
          "name": "",
          "type": "address"
        },
        {
          "internalType": "uint256",
          "name": "",
          "type": "uint256"
        }
      ],
      "name": "accessMappingGender",
      "outputs": [
        {
          "internalType": "address",
          "name": "",
          "type": "address"
        }
      ],
      "stateMutability": "view",
      "type": "function",
      "constant": true
    },
    {
      "inputs": [
        {
          "internalType": "address",
          "name": "",
          "type": "address"
        },
        {
          "internalType": "uint256",
          "name": "",
          "type": "uint256"
        }
      ],
      "name": "accessMappingHomeAddress",
      "outputs": [
        {
          "internalType": "address",
          "name": "",
          "type": "address"
        }
      ],
      "stateMutability": "view",
      "type": "function",
      "constant": true
    },
    {
      "inputs": [
        {
          "internalType": "address",
          "name": "",
          "type": "address"
        },
        {
          "internalType": "uint256",
          "name": "",
          "type": "uint256"
        }
      ],
      "name": "accessMappingName",
      "outputs": [
        {
          "internalType": "address",
          "name": "",
          "type": "address"
        }
      ],
      "stateMutability": "view",
      "type": "function",
      "constant": true
    },
    {
      "inputs": [
        {
          "internalType": "address",
          "name": "userAddress",
          "type": "address"
        },
        {
          "internalType": "string",
          "name": "name",
          "type": "string"
        }
      ],
      "name": "requestAccessName",
      "outputs": [],
      "stateMutability": "nonpayable",
      "type": "function"
    },
    {
      "inputs": [
        {
          "internalType": "address",
          "name": "userAddress",
          "type": "address"
        }
      ],
      "name": "grantAccessName",
      "outputs": [],
      "stateMutability": "nonpayable",
      "type": "function"
    },
    {
      "inputs": [
        {
          "internalType": "address",
          "name": "userAddress",
          "type": "address"
        },
        {
          "internalType": "string",
          "name": "name",
          "type": "string"
        }
      ],
      "name": "requestAccessDOB",
      "outputs": [],
      "stateMutability": "nonpayable",
      "type": "function"
    },
    {
      "inputs": [
        {
          "internalType": "address",
          "name": "userAddress",
          "type": "address"
        }
      ],
      "name": "grantAccessDOB",
      "outputs": [],
      "stateMutability": "nonpayable",
      "type": "function"
    },
    {
      "inputs": [
        {
          "internalType": "address",
          "name": "userAddress",
          "type": "address"
        },
        {
          "internalType": "string",
          "name": "name",
          "type": "string"
        }
      ],
      "name": "requestAccessHomeAddress",
      "outputs": [],
      "stateMutability": "nonpayable",
      "type": "function"
    },
    {
      "inputs": [
        {
          "internalType": "address",
          "name": "userAddress",
          "type": "address"
        }
      ],
      "name": "grantAccessHomeAddress",
      "outputs": [],
      "stateMutability": "nonpayable",
      "type": "function"
    },
    {
      "inputs": [
        {
          "internalType": "address",
          "name": "userAddress",
          "type": "address"
        },
        {
          "internalType": "string",
          "name": "name",
          "type": "string"
        }
      ],
      "name": "requestAccessGender",
      "outputs": [],
      "stateMutability": "nonpayable",
      "type": "function"
    },
    {
      "inputs": [
        {
          "internalType": "address",
          "name": "userAddress",
          "type": "address"
        }
      ],
      "name": "grantAccessGender",
      "outputs": [],
      "stateMutability": "nonpayable",
      "type": "function"
    },
    {
      "inputs": [
        {
          "internalType": "address",
          "name": "userAddress",
          "type": "address"
        }
      ],
      "name": "getAllAccess",
      "outputs": [
        {
          "components": [
            {
              "internalType": "string",
              "name": "name",
              "type": "string"
            },
            {
              "internalType": "string",
              "name": "DOB",
              "type": "string"
            },
            {
              "internalType": "string",
              "name": "HomeAddress",
              "type": "string"
            },
            {
              "internalType": "string",
              "name": "gender",
              "type": "string"
            }
          ],
          "internalType": "struct Aadhaar.User_Aadhaar",
          "name": "",
          "type": "tuple"
        }
      ],
      "stateMutability": "view",
      "type": "function",
      "constant": true
    },
    {
      "inputs": [
        {
          "internalType": "string",
          "name": "name",
          "type": "string"
        },
        {
          "internalType": "string",
          "name": "DOB",
          "type": "string"
        },
        {
          "internalType": "string",
          "name": "home_address",
          "type": "string"
        },
        {
          "internalType": "string",
          "name": "gender",
          "type": "string"
        }
      ],
      "name": "createUserDocuments",
      "outputs": [],
      "stateMutability": "nonpayable",
      "type": "function"
    },
    {
      "inputs": [],
      "name": "isNull",
      "outputs": [
        {
          "internalType": "string",
          "name": "",
          "type": "string"
        }
      ],
      "stateMutability": "pure",
      "type": "function",
      "constant": true
    },
    {
      "inputs": [
        {
          "internalType": "address",
          "name": "userAddress",
          "type": "address"
        }
      ],
      "name": "retrieveName",
      "outputs": [
        {
          "internalType": "string",
          "name": "name",
          "type": "string"
        }
      ],
      "stateMutability": "view",
      "type": "function",
      "constant": true
    },
    {
      "inputs": [
        {
          "internalType": "address",
          "name": "userAddress",
          "type": "address"
        }
      ],
      "name": "retrieveDOB",
      "outputs": [
        {
          "internalType": "string",
          "name": "DOB",
          "type": "string"
        }
      ],
      "stateMutability": "view",
      "type": "function",
      "constant": true
    },
    {
      "inputs": [
        {
          "internalType": "address",
          "name": "userAddress",
          "type": "address"
        }
      ],
      "name": "retrieveHomeAddress",
      "outputs": [
        {
          "internalType": "string",
          "name": "HomeAddress",
          "type": "string"
        }
      ],
      "stateMutability": "view",
      "type": "function",
      "constant": true
    },
    {
      "inputs": [
        {
          "internalType": "address",
          "name": "userAddress",
          "type": "address"
        }
      ],
      "name": "retrieveGender",
      "outputs": [
        {
          "internalType": "string",
          "name": "gender",
          "type": "string"
        }
      ],
      "stateMutability": "view",
      "type": "function",
      "constant": true
    },
    {
      "inputs": [
        {
          "internalType": "address",
          "name": "userAddress",
          "type": "address"
        }
      ],
      "name": "checkAllAccess",
      "outputs": [
        {
          "components": [
            {
              "internalType": "string",
              "name": "name",
              "type": "string"
            },
            {
              "internalType": "string",
              "name": "DOB",
              "type": "string"
            },
            {
              "internalType": "string",
              "name": "HomeAddress",
              "type": "string"
            },
            {
              "internalType": "string",
              "name": "gender",
              "type": "string"
            }
          ],
          "internalType": "struct Aadhaar.User_Aadhaar",
          "name": "",
          "type": "tuple"
        }
      ],
      "stateMutability": "view",
      "type": "function",
      "constant": true
    }
  ],
  "bytecode": "0x608060405234801561001057600080fd5b5061247e806100206000396000f3fe608060405234801561001057600080fd5b50600436106101375760003560e01c80639dd9fd63116100b8578063b538907e1161007c578063b538907e14610383578063b5da0114146103b3578063c5247f22146103d1578063d4ff371314610401578063f42ae4da1461041d578063fb729e8f1461043957610137565b80639dd9fd63146102cf5780639e93f62f146102eb578063a6cce62b1461031b578063aa1298d514610337578063acafa7a51461036757610137565b80634af4e89d116100ff5780634af4e89d1461022f578063686b1a701461024b5780636e2cfd4a14610267578063779d176e1461028357806386a751f81461029f57610137565b8063026b599b1461013c57806309722e591461016c57806315c97d071461019c57806332c733b2146101cc57806339f449fd146101ff575b600080fd5b610156600480360381019061015191906118f0565b610469565b60405161016391906119ad565b60405180910390f35b610186600480360381019061018191906118f0565b6106fb565b60405161019391906119ad565b60405180910390f35b6101b660048036038101906101b191906118f0565b61098d565b6040516101c39190611a91565b60405180910390f35b6101e660048036038101906101e191906118f0565b6109e3565b6040516101f69493929190611ab3565b60405180910390f35b61021960048036038101906102149190611b4a565b610c33565b6040516102269190611b99565b60405180910390f35b61024960048036038101906102449190611ce9565b610c81565b005b610265600480360381019061026091906118f0565b610cd5565b005b610281600480360381019061027c9190611ce9565b610d78565b005b61029d60048036038101906102989190611ce9565b610dcc565b005b6102b960048036038101906102b491906118f0565b610e20565b6040516102c69190611a91565b60405180910390f35b6102e960048036038101906102e49190611d45565b610f08565b005b61030560048036038101906103009190611b4a565b610fce565b6040516103129190611b99565b60405180910390f35b610335600480360381019061033091906118f0565b61101c565b005b610351600480360381019061034c9190611b4a565b6110bf565b60405161035e9190611b99565b60405180910390f35b610381600480360381019061037c91906118f0565b61110d565b005b61039d600480360381019061039891906118f0565b6111b0565b6040516103aa91906119ad565b60405180910390f35b6103bb611442565b6040516103c891906119ad565b60405180910390f35b6103eb60048036038101906103e69190611b4a565b61147f565b6040516103f89190611b99565b60405180910390f35b61041b600480360381019061041691906118f0565b6114cd565b005b61043760048036038101906104329190611ce9565b611570565b005b610453600480360381019061044e91906118f0565b6115c4565b60405161046091906119ad565b60405180910390f35b6060816000805b600160008473ffffffffffffffffffffffffffffffffffffffff1673ffffffffffffffffffffffffffffffffffffffff16815260200190815260200160002080549050811015610580573373ffffffffffffffffffffffffffffffffffffffff16600160008573ffffffffffffffffffffffffffffffffffffffff1673ffffffffffffffffffffffffffffffffffffffff168152602001908152602001600020828154811061052257610521611e1c565b5b9060005260206000200160009054906101000a900473ffffffffffffffffffffffffffffffffffffffff1673ffffffffffffffffffffffffffffffffffffffff160361056d57600191505b808061057890611e7a565b915050610470565b5080156106ea578360008060008373ffffffffffffffffffffffffffffffffffffffff1673ffffffffffffffffffffffffffffffffffffffff16815260200190815260200160002060000180546105d690611ef1565b905011610618576040517f08c379a000000000000000000000000000000000000000000000000000000000815260040161060f90611f6e565b60405180910390fd5b6000808673ffffffffffffffffffffffffffffffffffffffff1673ffffffffffffffffffffffffffffffffffffffff168152602001908152602001600020600001805461066490611ef1565b80601f016020809104026020016040519081016040528092919081815260200182805461069090611ef1565b80156106dd5780601f106106b2576101008083540402835291602001916106dd565b820191906000526020600020905b8154815290600101906020018083116106c057829003601f168201915b50505050509350506106f4565b6106f2611442565b505b5050919050565b6060816000805b600460008473ffffffffffffffffffffffffffffffffffffffff1673ffffffffffffffffffffffffffffffffffffffff16815260200190815260200160002080549050811015610812573373ffffffffffffffffffffffffffffffffffffffff16600460008573ffffffffffffffffffffffffffffffffffffffff1673ffffffffffffffffffffffffffffffffffffffff16815260200190815260200160002082815481106107b4576107b3611e1c565b5b9060005260206000200160009054906101000a900473ffffffffffffffffffffffffffffffffffffffff1673ffffffffffffffffffffffffffffffffffffffff16036107ff57600191505b808061080a90611e7a565b915050610702565b50801561097c578360008060008373ffffffffffffffffffffffffffffffffffffffff1673ffffffffffffffffffffffffffffffffffffffff168152602001908152602001600020600001805461086890611ef1565b9050116108aa576040517f08c379a00000000000000000000000000000000000000000000000000000000081526004016108a190611f6e565b60405180910390fd5b6000808673ffffffffffffffffffffffffffffffffffffffff1673ffffffffffffffffffffffffffffffffffffffff16815260200190815260200160002060030180546108f690611ef1565b80601f016020809104026020016040519081016040528092919081815260200182805461092290611ef1565b801561096f5780601f106109445761010080835404028352916020019161096f565b820191906000526020600020905b81548152906001019060200180831161095257829003601f168201915b5050505050935050610986565b610984611442565b505b5050919050565b610995611856565b600060405180608001604052806109ab85610469565b81526020016109b9856115c4565b81526020016109c7856111b0565b81526020016109d5856106fb565b815250905080915050919050565b6000602052806000526040600020600091509050806000018054610a0690611ef1565b80601f0160208091040260200160405190810160405280929190818152602001828054610a3290611ef1565b8015610a7f5780601f10610a5457610100808354040283529160200191610a7f565b820191906000526020600020905b815481529060010190602001808311610a6257829003601f168201915b505050505090806001018054610a9490611ef1565b80601f0160208091040260200160405190810160405280929190818152602001828054610ac090611ef1565b8015610b0d5780601f10610ae257610100808354040283529160200191610b0d565b820191906000526020600020905b815481529060010190602001808311610af057829003601f168201915b505050505090806002018054610b2290611ef1565b80601f0160208091040260200160405190810160405280929190818152602001828054610b4e90611ef1565b8015610b9b5780601f10610b7057610100808354040283529160200191610b9b565b820191906000526020600020905b815481529060010190602001808311610b7e57829003601f168201915b505050505090806003018054610bb090611ef1565b80601f0160208091040260200160405190810160405280929190818152602001828054610bdc90611ef1565b8015610c295780601f10610bfe57610100808354040283529160200191610c29565b820191906000526020600020905b815481529060010190602001808311610c0c57829003601f168201915b5050505050905084565b60036020528160005260406000208181548110610c4f57600080fd5b906000526020600020016000915091509054906101000a900473ffffffffffffffffffffffffffffffffffffffff1681565b8173ffffffffffffffffffffffffffffffffffffffff167f2b7d0639ee74977a8480bc14e3fd576ff2fd75521087934b00d123e744022d4c3383604051610cc9929190611fda565b60405180910390a25050565b600360003373ffffffffffffffffffffffffffffffffffffffff1673ffffffffffffffffffffffffffffffffffffffff168152602001908152602001600020819080600181540180825580915050600190039060005260206000200160009091909190916101000a81548173ffffffffffffffffffffffffffffffffffffffff021916908373ffffffffffffffffffffffffffffffffffffffff16021790555050565b8173ffffffffffffffffffffffffffffffffffffffff167f2b7d0639ee74977a8480bc14e3fd576ff2fd75521087934b00d123e744022d4c3383604051610dc0929190612069565b60405180910390a25050565b8173ffffffffffffffffffffffffffffffffffffffff167f2b7d0639ee74977a8480bc14e3fd576ff2fd75521087934b00d123e744022d4c3383604051610e149291906120f8565b60405180910390a25050565b610e28611856565b8160008060008373ffffffffffffffffffffffffffffffffffffffff1673ffffffffffffffffffffffffffffffffffffffff1681526020019081526020016000206000018054610e7790611ef1565b905011610eb9576040517f08c379a0000000000000000000000000000000000000000000000000000000008152600401610eb090611f6e565b60405180910390fd5b60006040518060800160405280610ecf86610469565b8152602001610edd866115c4565b8152602001610eeb866111b0565b8152602001610ef9866106fb565b81525090508092505050919050565b60006040518060800160405280868152602001858152602001848152602001838152509050806000803373ffffffffffffffffffffffffffffffffffffffff1673ffffffffffffffffffffffffffffffffffffffff1681526020019081526020016000206000820151816000019081610f8191906122e7565b506020820151816001019081610f9791906122e7565b506040820151816002019081610fad91906122e7565b506060820151816003019081610fc391906122e7565b509050505050505050565b60046020528160005260406000208181548110610fea57600080fd5b906000526020600020016000915091509054906101000a900473ffffffffffffffffffffffffffffffffffffffff1681565b600260003373ffffffffffffffffffffffffffffffffffffffff1673ffffffffffffffffffffffffffffffffffffffff168152602001908152602001600020819080600181540180825580915050600190039060005260206000200160009091909190916101000a81548173ffffffffffffffffffffffffffffffffffffffff021916908373ffffffffffffffffffffffffffffffffffffffff16021790555050565b600260205281600052604060002081815481106110db57600080fd5b906000526020600020016000915091509054906101000a900473ffffffffffffffffffffffffffffffffffffffff1681565b600160003373ffffffffffffffffffffffffffffffffffffffff1673ffffffffffffffffffffffffffffffffffffffff168152602001908152602001600020819080600181540180825580915050600190039060005260206000200160009091909190916101000a81548173ffffffffffffffffffffffffffffffffffffffff021916908373ffffffffffffffffffffffffffffffffffffffff16021790555050565b6060816000805b600360008473ffffffffffffffffffffffffffffffffffffffff1673ffffffffffffffffffffffffffffffffffffffff168152602001908152602001600020805490508110156112c7573373ffffffffffffffffffffffffffffffffffffffff16600360008573ffffffffffffffffffffffffffffffffffffffff1673ffffffffffffffffffffffffffffffffffffffff168152602001908152602001600020828154811061126957611268611e1c565b5b9060005260206000200160009054906101000a900473ffffffffffffffffffffffffffffffffffffffff1673ffffffffffffffffffffffffffffffffffffffff16036112b457600191505b80806112bf90611e7a565b9150506111b7565b508015611431578360008060008373ffffffffffffffffffffffffffffffffffffffff1673ffffffffffffffffffffffffffffffffffffffff168152602001908152602001600020600001805461131d90611ef1565b90501161135f576040517f08c379a000000000000000000000000000000000000000000000000000000000815260040161135690611f6e565b60405180910390fd5b6000808673ffffffffffffffffffffffffffffffffffffffff1673ffffffffffffffffffffffffffffffffffffffff16815260200190815260200160002060020180546113ab90611ef1565b80601f01602080910402602001604051908101604052809291908181526020018280546113d790611ef1565b80156114245780601f106113f957610100808354040283529160200191611424565b820191906000526020600020905b81548152906001019060200180831161140757829003601f168201915b505050505093505061143b565b611439611442565b505b5050919050565b60606040518060400160405280600b81526020017f4e6f7420416c6c6f776564000000000000000000000000000000000000000000815250905090565b6001602052816000526040600020818154811061149b57600080fd5b906000526020600020016000915091509054906101000a900473ffffffffffffffffffffffffffffffffffffffff1681565b600460003373ffffffffffffffffffffffffffffffffffffffff1673ffffffffffffffffffffffffffffffffffffffff168152602001908152602001600020819080600181540180825580915050600190039060005260206000200160009091909190916101000a81548173ffffffffffffffffffffffffffffffffffffffff021916908373ffffffffffffffffffffffffffffffffffffffff16021790555050565b8173ffffffffffffffffffffffffffffffffffffffff167f2b7d0639ee74977a8480bc14e3fd576ff2fd75521087934b00d123e744022d4c33836040516115b8929190612405565b60405180910390a25050565b6060816000805b600260008473ffffffffffffffffffffffffffffffffffffffff1673ffffffffffffffffffffffffffffffffffffffff168152602001908152602001600020805490508110156116db573373ffffffffffffffffffffffffffffffffffffffff16600260008573ffffffffffffffffffffffffffffffffffffffff1673ffffffffffffffffffffffffffffffffffffffff168152602001908152602001600020828154811061167d5761167c611e1c565b5b9060005260206000200160009054906101000a900473ffffffffffffffffffffffffffffffffffffffff1673ffffffffffffffffffffffffffffffffffffffff16036116c857600191505b80806116d390611e7a565b9150506115cb565b508015611845578360008060008373ffffffffffffffffffffffffffffffffffffffff1673ffffffffffffffffffffffffffffffffffffffff168152602001908152602001600020600001805461173190611ef1565b905011611773576040517f08c379a000000000000000000000000000000000000000000000000000000000815260040161176a90611f6e565b60405180910390fd5b6000808673ffffffffffffffffffffffffffffffffffffffff1673ffffffffffffffffffffffffffffffffffffffff16815260200190815260200160002060010180546117bf90611ef1565b80601f01602080910402602001604051908101604052809291908181526020018280546117eb90611ef1565b80156118385780601f1061180d57610100808354040283529160200191611838565b820191906000526020600020905b81548152906001019060200180831161181b57829003601f168201915b505050505093505061184f565b61184d611442565b505b5050919050565b6040518060800160405280606081526020016060815260200160608152602001606081525090565b6000604051905090565b600080fd5b600080fd5b600073ffffffffffffffffffffffffffffffffffffffff82169050919050565b60006118bd82611892565b9050919050565b6118cd816118b2565b81146118d857600080fd5b50565b6000813590506118ea816118c4565b92915050565b60006020828403121561190657611905611888565b5b6000611914848285016118db565b91505092915050565b600081519050919050565b600082825260208201905092915050565b60005b8381101561195757808201518184015260208101905061193c565b60008484015250505050565b6000601f19601f8301169050919050565b600061197f8261191d565b6119898185611928565b9350611999818560208601611939565b6119a281611963565b840191505092915050565b600060208201905081810360008301526119c78184611974565b905092915050565b600082825260208201905092915050565b60006119eb8261191d565b6119f581856119cf565b9350611a05818560208601611939565b611a0e81611963565b840191505092915050565b60006080830160008301518482036000860152611a3682826119e0565b91505060208301518482036020860152611a5082826119e0565b91505060408301518482036040860152611a6a82826119e0565b91505060608301518482036060860152611a8482826119e0565b9150508091505092915050565b60006020820190508181036000830152611aab8184611a19565b905092915050565b60006080820190508181036000830152611acd8187611974565b90508181036020830152611ae18186611974565b90508181036040830152611af58185611974565b90508181036060830152611b098184611974565b905095945050505050565b6000819050919050565b611b2781611b14565b8114611b3257600080fd5b50565b600081359050611b4481611b1e565b92915050565b60008060408385031215611b6157611b60611888565b5b6000611b6f858286016118db565b9250506020611b8085828601611b35565b9150509250929050565b611b93816118b2565b82525050565b6000602082019050611bae6000830184611b8a565b92915050565b600080fd5b600080fd5b7f4e487b7100000000000000000000000000000000000000000000000000000000600052604160045260246000fd5b611bf682611963565b810181811067ffffffffffffffff82111715611c1557611c14611bbe565b5b80604052505050565b6000611c2861187e565b9050611c348282611bed565b919050565b600067ffffffffffffffff821115611c5457611c53611bbe565b5b611c5d82611963565b9050602081019050919050565b82818337600083830152505050565b6000611c8c611c8784611c39565b611c1e565b905082815260208101848484011115611ca857611ca7611bb9565b5b611cb3848285611c6a565b509392505050565b600082601f830112611cd057611ccf611bb4565b5b8135611ce0848260208601611c79565b91505092915050565b60008060408385031215611d0057611cff611888565b5b6000611d0e858286016118db565b925050602083013567ffffffffffffffff811115611d2f57611d2e61188d565b5b611d3b85828601611cbb565b9150509250929050565b60008060008060808587031215611d5f57611d5e611888565b5b600085013567ffffffffffffffff811115611d7d57611d7c61188d565b5b611d8987828801611cbb565b945050602085013567ffffffffffffffff811115611daa57611da961188d565b5b611db687828801611cbb565b935050604085013567ffffffffffffffff811115611dd757611dd661188d565b5b611de387828801611cbb565b925050606085013567ffffffffffffffff811115611e0457611e0361188d565b5b611e1087828801611cbb565b91505092959194509250565b7f4e487b7100000000000000000000000000000000000000000000000000000000600052603260045260246000fd5b7f4e487b7100000000000000000000000000000000000000000000000000000000600052601160045260246000fd5b6000611e8582611b14565b91507fffffffffffffffffffffffffffffffffffffffffffffffffffffffffffffffff8203611eb757611eb6611e4b565b5b600182019050919050565b7f4e487b7100000000000000000000000000000000000000000000000000000000600052602260045260246000fd5b60006002820490506001821680611f0957607f821691505b602082108103611f1c57611f1b611ec2565b5b50919050565b7f5573657220646f6573206e6f7420657869737400000000000000000000000000600082015250565b6000611f58601383611928565b9150611f6382611f22565b602082019050919050565b60006020820190508181036000830152611f8781611f4b565b9050919050565b7f4e616d6500000000000000000000000000000000000000000000000000000000600082015250565b6000611fc4600483611928565b9150611fcf82611f8e565b602082019050919050565b60006060820190508181036000830152611ff381611fb7565b90506120026020830185611b8a565b81810360408301526120148184611974565b90509392505050565b7f47656e6465720000000000000000000000000000000000000000000000000000600082015250565b6000612053600683611928565b915061205e8261201d565b602082019050919050565b6000606082019050818103600083015261208281612046565b90506120916020830185611b8a565b81810360408301526120a38184611974565b90509392505050565b7f444f420000000000000000000000000000000000000000000000000000000000600082015250565b60006120e2600383611928565b91506120ed826120ac565b602082019050919050565b60006060820190508181036000830152612111816120d5565b90506121206020830185611b8a565b81810360408301526121328184611974565b90509392505050565b60008190508160005260206000209050919050565b60006020601f8301049050919050565b600082821b905092915050565b60006008830261219d7fffffffffffffffffffffffffffffffffffffffffffffffffffffffffffffffff82612160565b6121a78683612160565b95508019841693508086168417925050509392505050565b6000819050919050565b60006121e46121df6121da84611b14565b6121bf565b611b14565b9050919050565b6000819050919050565b6121fe836121c9565b61221261220a826121eb565b84845461216d565b825550505050565b600090565b61222761221a565b6122328184846121f5565b505050565b5b818110156122565761224b60008261221f565b600181019050612238565b5050565b601f82111561229b5761226c8161213b565b61227584612150565b81016020851015612284578190505b61229861229085612150565b830182612237565b50505b505050565b600082821c905092915050565b60006122be600019846008026122a0565b1980831691505092915050565b60006122d783836122ad565b9150826002028217905092915050565b6122f08261191d565b67ffffffffffffffff81111561230957612308611bbe565b5b6123138254611ef1565b61231e82828561225a565b600060209050601f831160018114612351576000841561233f578287015190505b61234985826122cb565b8655506123b1565b601f19841661235f8661213b565b60005b8281101561238757848901518255600182019150602085019450602081019050612362565b868310156123a457848901516123a0601f8916826122ad565b8355505b6001600288020188555050505b505050505050565b7f486f6d6520416464726573730000000000000000000000000000000000000000600082015250565b60006123ef600c83611928565b91506123fa826123b9565b602082019050919050565b6000606082019050818103600083015261241e816123e2565b905061242d6020830185611b8a565b818103604083015261243f8184611974565b9050939250505056fea2646970667358221220a8ba8b5c8b53124bdfff3435f2ca4b3137120442323a9670da846e17e82e758b64736f6c63430008130033",
  "immutableReferences": {},
  "source": "// SPDX-License-Identifier: MIT\r\npragma solidity ^0.8.18;\r\n\r\ncontract Aadhaar {\r\n    event userNotification(string field, address company, address indexed user,string name);\r\n\r\n    // struct to store user aadhar\r\n    struct User_Aadhaar {\r\n        string name;\r\n        string DOB;\r\n        string HomeAddress;\r\n        string gender;\r\n    }\r\n\r\n    mapping(address => User_Aadhaar) public aadhaarMapping; // mapping which maps user_address to his struct Aadhar\r\n\r\n    mapping(address => address[]) public accessMappingName; // mapping whihc maps user_address to the list of address which can access the user data. Used for the access modifiier\r\n    mapping(address => address[]) public accessMappingDOB;\r\n    mapping(address => address[]) public accessMappingHomeAddress;\r\n    mapping(address => address[]) public accessMappingGender;\r\n\r\n    function requestAccessName(address userAddress,string memory name) public {\r\n        // function used by company to request access\r\n\r\n        emit userNotification(\"Name\", msg.sender, userAddress,name);\r\n    }\r\n\r\n    function grantAccessName(address userAddress) public {\r\n        accessMappingName[msg.sender].push(userAddress);    \r\n    }\r\n\r\n    function requestAccessDOB(address userAddress,string memory name) public {\r\n        // function used by company to request access\r\n        emit userNotification(\"DOB\", msg.sender, userAddress,name);\r\n    }\r\n\r\n    function grantAccessDOB(address userAddress) public {\r\n        accessMappingDOB[msg.sender].push(userAddress);\r\n    }\r\n\r\n    function requestAccessHomeAddress(address userAddress,string memory name) public {\r\n        // function used by company to request access\r\n        emit userNotification(\"Home Address\", msg.sender, userAddress,name);\r\n    }\r\n\r\n    function grantAccessHomeAddress(address userAddress) public {\r\n        accessMappingHomeAddress[msg.sender].push(userAddress);\r\n    }\r\n\r\n    function requestAccessGender(address userAddress,string memory name) public {\r\n        // function used by company to request access\r\n        emit userNotification(\"Gender\", msg.sender, userAddress,name);\r\n    }\r\n\r\n    function grantAccessGender(address userAddress) public {\r\n        accessMappingGender[msg.sender].push(userAddress);\r\n    }\r\n\r\n    function getAllAccess(\r\n        address userAddress\r\n    ) public view returns (User_Aadhaar memory) {\r\n        User_Aadhaar memory user = User_Aadhaar(\r\n            retrieveName(userAddress),\r\n            retrieveDOB(userAddress),\r\n            retrieveHomeAddress(userAddress),\r\n            retrieveGender(userAddress)\r\n        );\r\n        return user;\r\n    }\r\n\r\n    //NEECHE wale commented code hai babu ye kyu padhre ho\r\n    // mapping(address => AccessRequest) public accessRequests;\r\n\r\n    // event AccessRequested(address indexed requester);\r\n\r\n    // event AccessApproved(address indexed approver);\r\n\r\n    //ISKE LIYE TU COMMENTS PADHRA BABA?? NAME SAYS ITSELF\r\n    function createUserDocuments(\r\n        string memory name,\r\n        string memory DOB,\r\n        string memory home_address,\r\n        string memory gender\r\n    ) public {\r\n        // function used by user/ML model to create new aadhar struct\r\n        User_Aadhaar memory user = User_Aadhaar(\r\n            name,\r\n            DOB,\r\n            home_address,\r\n            gender\r\n        );\r\n        aadhaarMapping[msg.sender] = user;\r\n    }\r\n\r\n    //This modifies iterates over the accessMapping and checks Ki if the user has the access or not\r\n    // modifier canAccess(address userAddress) {\r\n    //   bool found = false;\r\n    //    for (uint256 i = 0; i < accessMapping[userAddress].length; i++){\r\n    //             if (accessMapping[userAddress][i] == msg.sender) {\r\n    //                 found=true;\r\n    //             }\r\n    //         }\r\n    //   require(found);\r\n    //   _;\r\n    // }\r\n\r\n    function isNull() public pure returns (string memory) {\r\n        return \"Not Allowed\";\r\n    }\r\n\r\n    modifier canAccessName(address userAddress) {\r\n        bool found = false;\r\n        for (uint256 i = 0; i < accessMappingName[userAddress].length; i++) {\r\n            if (accessMappingName[userAddress][i] == msg.sender) {\r\n                found = true;\r\n            }\r\n        }\r\n        //   require(found,\"Not Given access by owner of Name\");\r\n        if (found) {\r\n            _;\r\n        } else {\r\n            isNull();\r\n        }\r\n    }\r\n    modifier canAccessDOB(address userAddress) {\r\n        bool found = false;\r\n        for (uint256 i = 0; i < accessMappingDOB[userAddress].length; i++) {\r\n            if (accessMappingDOB[userAddress][i] == msg.sender) {\r\n                found = true;\r\n            }\r\n        }\r\n        //   require(found,\"Not Given access by owner of DOB\");\r\n        //   _;\r\n        if (found) {\r\n            _;\r\n        } else {\r\n            isNull();\r\n        }\r\n    }\r\n    modifier canAccessHomeAddress(address userAddress) {\r\n        bool found = false;\r\n        for (\r\n            uint256 i = 0;\r\n            i < accessMappingHomeAddress[userAddress].length;\r\n            i++\r\n        ) {\r\n            if (accessMappingHomeAddress[userAddress][i] == msg.sender) {\r\n                found = true;\r\n            }\r\n        }\r\n        //   require(found,\"Not Given access by owner of Home Address\");\r\n        //   _;\r\n        if (found) {\r\n            _;\r\n        } else {\r\n            isNull();\r\n        }\r\n    }\r\n    modifier canAccessGender(address userAddress) {\r\n        bool found = false;\r\n        for (uint256 i = 0; i < accessMappingGender[userAddress].length; i++) {\r\n            if (accessMappingGender[userAddress][i] == msg.sender) {\r\n                found = true;\r\n            }\r\n        }\r\n        //   require(found,\"Not Given access by owner of Gender\");\r\n        //   _;\r\n        if (found) {\r\n            _;\r\n        } else {\r\n            isNull();\r\n        }\r\n    }\r\n\r\n    modifier doesExist(address userAddress) {\r\n        require(\r\n            bytes(aadhaarMapping[userAddress].name).length > 0,\r\n            \"User does not exist\"\r\n        );\r\n        _;\r\n    }\r\n\r\n    //first checks weather the company has the access to retrieve and then returns Name of Aadhaar to the company\r\n    function retrieveName(\r\n        address userAddress\r\n    )\r\n        public\r\n        view\r\n        canAccessName(userAddress)\r\n        doesExist(userAddress)\r\n        returns (string memory name)\r\n    {\r\n        return aadhaarMapping[userAddress].name;\r\n    }\r\n\r\n    //first checks weather the company has the access to retrieve and then returns DOB of Aadhaar to the company\r\n    function retrieveDOB(\r\n        address userAddress\r\n    )\r\n        public\r\n        view\r\n        canAccessDOB(userAddress)\r\n        doesExist(userAddress)\r\n        returns (string memory DOB)\r\n    {\r\n        return aadhaarMapping[userAddress].DOB;\r\n    }\r\n\r\n    //first checks weather the company has the access to retrieve and then returns HomeAddress of Aadhaar to the company\r\n    function retrieveHomeAddress(\r\n        address userAddress\r\n    )\r\n        public\r\n        view\r\n        canAccessHomeAddress(userAddress)\r\n        doesExist(userAddress)\r\n        returns (string memory HomeAddress)\r\n    {\r\n        return aadhaarMapping[userAddress].HomeAddress;\r\n    }\r\n\r\n    //first checks weather the company has the access to retrieve and then returns gender of Aadhaar to the company\r\n    function retrieveGender(\r\n        address userAddress\r\n    )\r\n        public\r\n        view\r\n        canAccessGender(userAddress)\r\n        doesExist(userAddress)\r\n        returns (string memory gender)\r\n    {\r\n        return aadhaarMapping[userAddress].gender;\r\n    }\r\n\r\n    function checkAllAccess(\r\n        address userAddress\r\n    ) public view doesExist(userAddress) returns (User_Aadhaar memory) {\r\n        User_Aadhaar memory user = User_Aadhaar(\r\n            retrieveName(userAddress),\r\n            retrieveDOB(userAddress),\r\n            retrieveHomeAddress(userAddress),\r\n            retrieveGender(userAddress)\r\n        );\r\n\r\n        return user;\r\n    }\r\n}\r\n",
  "sourcePath": "C:\\Users\\Devangana\\Desktop\\db\\web\\PIIShieldReturns\\contracts\\Aadhaar.sol",
  "compiler": {
    "name": "solc",
    "version": "0.8.19+commit.7dd6d404.Emscripten.clang"
  },
  "schemaVersion": "3.4.16",
  "updatedAt": "2024-09-29T10:02:28.969Z",
  "networkType": "ethereum",
  "devdoc": {
    "kind": "dev",
    "methods": {},
    "version": 1
  },
  "userdoc": {
    "kind": "user",
    "methods": {},
    "version": 1
  }
}