{
  "contractName": "CompanyEnrollment",
  "abi": [
    {
      "inputs": [
        {
          "internalType": "address",
          "name": "",
          "type": "address"
        }
      ],
      "name": "companies",
      "outputs": [
        {
          "internalType": "string",
          "name": "",
          "type": "string"
        }
      ],
      "stateMutability": "view",
      "type": "function",
      "constant": true
    },
    {
      "inputs": [
        {
          "internalType": "string",
          "name": "name",
          "type": "string"
        }
      ],
      "name": "enroll",
      "outputs": [],
      "stateMutability": "nonpayable",
      "type": "function"
    },
    {
      "inputs": [
        {
          "internalType": "address",
          "name": "addr",
          "type": "address"
        }
      ],
      "name": "getCompany",
      "outputs": [
        {
          "internalType": "string",
          "name": "",
          "type": "string"
        }
      ],
      "stateMutability": "view",
      "type": "function",
      "constant": true
    },
    {
      "inputs": [
        {
          "internalType": "address",
          "name": "addr",
          "type": "address"
        }
      ],
      "name": "checkCompany",
      "outputs": [
        {
          "internalType": "bool",
          "name": "",
          "type": "bool"
        }
      ],
      "stateMutability": "view",
      "type": "function",
      "constant": true
    }
  ],
  "bytecode": "0x608060405234801561001057600080fd5b50610935806100206000396000f3fe608060405234801561001057600080fd5b506004361061004c5760003560e01c8063355e6ce81461005157806362bc56e61461008157806367b09cdb146100b1578063b77553b6146100cd575b600080fd5b61006b60048036038101906100669190610384565b6100fd565b6040516100789190610441565b60405180910390f35b61009b60048036038101906100969190610384565b61019d565b6040516100a89190610441565b60405180910390f35b6100cb60048036038101906100c69190610598565b61026d565b005b6100e760048036038101906100e29190610384565b6102bc565b6040516100f491906105fc565b60405180910390f35b6000602052806000526040600020600091509050805461011c90610646565b80601f016020809104026020016040519081016040528092919081815260200182805461014890610646565b80156101955780601f1061016a57610100808354040283529160200191610195565b820191906000526020600020905b81548152906001019060200180831161017857829003601f168201915b505050505081565b60606000808373ffffffffffffffffffffffffffffffffffffffff1673ffffffffffffffffffffffffffffffffffffffff16815260200190815260200160002080546101e890610646565b80601f016020809104026020016040519081016040528092919081815260200182805461021490610646565b80156102615780601f1061023657610100808354040283529160200191610261565b820191906000526020600020905b81548152906001019060200180831161024457829003601f168201915b50505050509050919050565b806000803373ffffffffffffffffffffffffffffffffffffffff1673ffffffffffffffffffffffffffffffffffffffff16815260200190815260200160002090816102b8919061082d565b5050565b6000806000808473ffffffffffffffffffffffffffffffffffffffff1673ffffffffffffffffffffffffffffffffffffffff168152602001908152602001600020805461030890610646565b9050119050919050565b6000604051905090565b600080fd5b600080fd5b600073ffffffffffffffffffffffffffffffffffffffff82169050919050565b600061035182610326565b9050919050565b61036181610346565b811461036c57600080fd5b50565b60008135905061037e81610358565b92915050565b60006020828403121561039a5761039961031c565b5b60006103a88482850161036f565b91505092915050565b600081519050919050565b600082825260208201905092915050565b60005b838110156103eb5780820151818401526020810190506103d0565b60008484015250505050565b6000601f19601f8301169050919050565b6000610413826103b1565b61041d81856103bc565b935061042d8185602086016103cd565b610436816103f7565b840191505092915050565b6000602082019050818103600083015261045b8184610408565b905092915050565b600080fd5b600080fd5b7f4e487b7100000000000000000000000000000000000000000000000000000000600052604160045260246000fd5b6104a5826103f7565b810181811067ffffffffffffffff821117156104c4576104c361046d565b5b80604052505050565b60006104d7610312565b90506104e3828261049c565b919050565b600067ffffffffffffffff8211156105035761050261046d565b5b61050c826103f7565b9050602081019050919050565b82818337600083830152505050565b600061053b610536846104e8565b6104cd565b90508281526020810184848401111561055757610556610468565b5b610562848285610519565b509392505050565b600082601f83011261057f5761057e610463565b5b813561058f848260208601610528565b91505092915050565b6000602082840312156105ae576105ad61031c565b5b600082013567ffffffffffffffff8111156105cc576105cb610321565b5b6105d88482850161056a565b91505092915050565b60008115159050919050565b6105f6816105e1565b82525050565b600060208201905061061160008301846105ed565b92915050565b7f4e487b7100000000000000000000000000000000000000000000000000000000600052602260045260246000fd5b6000600282049050600182168061065e57607f821691505b60208210810361067157610670610617565b5b50919050565b60008190508160005260206000209050919050565b60006020601f8301049050919050565b600082821b905092915050565b6000600883026106d97fffffffffffffffffffffffffffffffffffffffffffffffffffffffffffffffff8261069c565b6106e3868361069c565b95508019841693508086168417925050509392505050565b6000819050919050565b6000819050919050565b600061072a610725610720846106fb565b610705565b6106fb565b9050919050565b6000819050919050565b6107448361070f565b61075861075082610731565b8484546106a9565b825550505050565b600090565b61076d610760565b61077881848461073b565b505050565b5b8181101561079c57610791600082610765565b60018101905061077e565b5050565b601f8211156107e1576107b281610677565b6107bb8461068c565b810160208510156107ca578190505b6107de6107d68561068c565b83018261077d565b50505b505050565b600082821c905092915050565b6000610804600019846008026107e6565b1980831691505092915050565b600061081d83836107f3565b9150826002028217905092915050565b610836826103b1565b67ffffffffffffffff81111561084f5761084e61046d565b5b6108598254610646565b6108648282856107a0565b600060209050601f8311600181146108975760008415610885578287015190505b61088f8582610811565b8655506108f7565b601f1984166108a586610677565b60005b828110156108cd578489015182556001820191506020850194506020810190506108a8565b868310156108ea57848901516108e6601f8916826107f3565b8355505b6001600288020188555050505b50505050505056fea2646970667358221220fa5eed199445c52aa3a73f881230ff2738c06a471e916f0f230df9e3dd5c4ae264736f6c63430008130033",
  "immutableReferences": {},
  "source": "// SPDX-License-Identifier: MIT\r\npragma solidity ^0.8.18;\r\n\r\n\r\ncontract CompanyEnrollment {\r\n    \r\n    mapping(address => string) public companies;\r\n\r\n    function enroll(string memory name) public {\r\n        companies[msg.sender] = name;\r\n    }\r\n\r\n    function getCompany(address addr) public view returns (string memory) {\r\n        return companies[addr];\r\n    }\r\n\r\n    function checkCompany(address addr) public view returns (bool) {\r\n        return bytes(companies[addr]).length > 0;\r\n    }\r\n}",
  "sourcePath": "C:\\Users\\Devangana\\Desktop\\db\\web\\PIIShieldReturns\\contracts\\CompanyEnrollment.sol",
  "compiler": {
    "name": "solc",
    "version": "0.8.19+commit.7dd6d404.Emscripten.clang"
  },
  "schemaVersion": "3.4.16",
  "updatedAt": "2024-09-29T10:02:29.176Z",
  "networkType": "ethereum",
  "devdoc": {
    "kind": "dev",
    "methods": {},
    "version": 1
  },
  "userdoc": {
    "kind": "user",
    "methods": {},
    "version": 1
  }
}